S00C0000776966692E7372656369
S113000012C02AC029C028C027C026C025C024C0C9
S113001023C022C021C027C11FC01EC01DC01CC0D8
S11300201BC01AC019C011241FBECFEDCDBF10E0F4
S1130030A0E6B0E0E2EAF3E002C005900D92A03839
S1130040B107D9F710E0A0E8B0E001C01D92A138D3
S1130050B107E1F758D0A3C1D3CF92B989B988E1E8
S11300608AB98EE083B908955D9BFECF8CB908955B
S11300705F9BFECF8CB10895FC018081882339F009
S113008031965D9BFECF8CB981918823D1F7089579
S113009066D18FE097E20197F1F700C00000089560
S11300A0FF920F931F938C01F62EAAD08823E9F3B5
S11300B0C801C4D0FF2051F0E02FF12F80E09191CE
S11300C05D9BFECF9CB98F5F8F15C8F31F910F9175
S11300D0FF900895FC012785322F3F5F37872F510A
S11300E02B3510F020E22787D3DF08951F93CF9399
S11300F0DF93EC01162FCCDFCE01612FD1DFDF912E
S1130100CF911F9108950F931F93DF93CF93CDB792
S1130110DEB7C052CDBF12B88CE089B988E18AB984
S11301208EE083B98E010F5F1F4FD801E0E6F0E047
S113013080E201900D928150E1F755D08FE798E36A
S1130140A1E081509040A040E1F700C0000087E0AA
S1130150B80141E0C9D0BBD088E68983C80160E218
S1130160C5DFFCCFBD98C59A87B3806C87BB8AE195
S11301708DB908958FB980E48EB98BE18DB9769BE2
S1130180FDCF8FB10895442391F0A82FB92FE62F06
S1130190F72F90E030E48BE12D912FB93EB98DB962
S11301A0769BFDCF2FB121939F5F9417A8F30895F9
S11301B0662379F0E82FF92F90E030E48BE1219168
S11301C02FB93EB98DB9769BFDCF2FB19F5F96179E
S11301D0B0F308958FB980E48EB98BE18DB9769B25
S11301E0FDCF8FB1089587B38C6087BBC398C29A43
S11301F08BB780628BBF80B5806180BDB3DF08950B
S113020080918000882311F080E00895C2988FEFD8
S1130210E1DFC29A80740895DF93CF930F92CDB734
S1130220DEB7C2988F7180626983D4DF6981862FBB
S1130230D1DFC29A0F90CF91DF910895CF93DF93CE
S1130240EC01C29881E6C6DFCE01BE0140E29BDF2D
S1130250C29AC29882EEBEDFC29A87E060E4DCDF15
S1130260DF91CF9108951F920F920FB60F92112430
S11302702F933F934F935F936F937F938F939F93AA
S1130280AF93BF93EF93FF9380918000882371F025
S1130290C2988FEF9FDFC29AC39880E06BE4BCDF03
S11302A0C39A1092800087E060E3B6DFFF91EF917C
S11302B0BF91AF919F918F917F916F915F914F917A
S11302C03F912F910F900FBE0F901F90189585E0CE
S11302D062E0A2DF81E160E29FDF1092800080E0B3
S11302E06BE49ADFC39A08950F931F93DF93CF9320
S11302F00F92CDB7DEB78B01C2988F7149836ADF45
S1130300C801B80149813FDFC29A0F90CF91DF91B4
S11303101F910F9108950F931F93DF93CF930F9223
S1130320CDB7DEB78B01C2988F718062498352DFEB
S1130330C8014981642F3CDFC29A0F90CF91DF91AD
S11303401F910F910895BC0180E145E0E4DF089519
S1130350BC01C3988AE045E0DEDFC39A08951F9389
S1130360CF93DF93EC01162F809180008823E1F76F
S1130370C39881E08093800080E06AE44DDFC298F6
S113038081EE28DFC29AC29880EA24DFCE01612F71
S11303900FDFC29AC39ADF91CF911F910895F89409
S10503A0FFCF89
S11303A22E656C6C6F206E6F6F646C65212E2E7DD2
S11303B26C61756C6F206E6F6F646C65212E2E7D7F
S9030000FC
