:100000000C9428000C9432000C9432000C943200B2
:100010000C9432000C9432000C9432000C94320098
:100020000C9432000C9432000C9432000C94320088
:100030000C9432000C9432000C9432000C94320078
:100040000C9432000C9432000C9432000C94320068
:1000500011241FBECEEFD2E0DEBFCDBF0E9446000E
:100060000C9457000C940000089A089581B18067A1
:1000700081B98CB581658CBD8DB581608DBD0895CC
:100080008EBD0DB407FEFDCF8EB50895089A81B1DF
:10009000806781B98CB581658CBD8DB581608DBD62
:1000A00081E68EBD0DB407FEFDCF9EB5FACFF89464
:0200B000FFCF80
:00000001FF
