S0170000636F6E74726F6C6C657254657374312E73726563F8
S11300000C9428000C9432000C9453000C9432008D
S11300100C9432000C9432000C9432000C94320094
S11300200C9432000C9432000C9432000C94320084
S11300300C9432000C9432000C9432000C94320074
S11300400C9432000C9432000C9432000C94320064
S113005011241FBECEEFD2E0DEBFCDBF0E947000E0
S11300600C948E000C9400008EEF84B988E085B95E
S113007081B1886881B90895E9E6F0E080818C60F7
S11300808083E99A089581B1806781B98CB58165CF
S11300908CBD8DB581608DBD08958EBD0DB407FEF8
S11300A0FDCF8EB508951F920F920FB60F921124B3
S11300B08F939F93AF93BF93179A8FEF94E3ACE022
S11300C081509040A040E1F700C000001798BF9114
S11300D0AF919F918F910F900FBE0F901F90189525
S11300E08EEF84B988E085B981B1886881B981B11E
S11300F0806781B98CB581658CBD8DB581608DBDFE
S1130100809169008C6080936900E99A789481E613
S11301108EBD0DB407FEFDCF9EB5FACFF894FFCF88
S9030000FC
