:100000000C949F010C94BC010C94BC010C94BC0199
:100010000C94BC010C94BC010C94BC010C94BC016C
:100020000C94BC010C94BC010C94BC010C94BC015C
:100030000C94BC010C94BC010C94BC010C94BC014C
:100040000C94BC010C94BC010C94BC010C94BC013C
:10005000000002000000000000000000001000008E
:10006000000000000000000000010000000000008F
:100070000000180000000000000000001800000050
:10008000000000001000000000000000000000015F
:100090000000000000000000000000100000000050
:1000A0000000000000200000000000000000000030
:1000B00001000000000080000000000000000008B7
:1000C0000000000000000000000000000000100020
:1000D0000000000000000000000800000000000018
:1000E000000000010000010000000000000000000E
:1000F00000010000000000000000000000000000FF
:10010000800000000000000000000000400000002F
:1001100000000000000002001800000000000000C5
:1001200000002000000000000000000000000000AF
:10013000000000000001000000000000000000209E
:10014000000000000000000000400000010000006E
:10015000000000000000002000000000000000007F
:1001600000008000000000000000000010000000FF
:100170000000000000000200000000000000180065
:10018000000000000000000000020000000000006D
:100190000000000000080000000000000000004017
:1001A00000000000000000000000008000000000CF
:1001B00040000000000000000010000000000000EF
:1001C0000000000000000000180000000000000017
:1001D000000000100000000000000000000200000D
:1001E000008000000000000000000002000000008D
:1001F00000000000000000000000400000000000BF
:1002000000000000000020000000000000000000CE
:10021000180018000000000000000000400000006E
:1002200000000000000000000000000000000002CC
:1002300000000000000000000010000000000000AE
:1002400000000080000000800000000000000000AE
:10025000004000000000000000000000400000001E
:10026000000000000000200000000000000000006E
:100270000100000000000000180000000000000065
:100280000000000400000000000000000000000466
:1002900000000000000000000080000000000000DE
:1002A00000000000004000000000200000000000EE
:1002B000000000200000000000000000000000001E
:1002C00000001800000000000000000000200000F6
:1002D00000000000000000040000004000000000DA
:1002E000000000000004000000000000000000000A
:1002F00000000000200000000000000000000000DE
:1003000010000000000000000000180002000000C3
:10031000000000000000800000000000000000005D
:1003200000000000000000000004000000000000C9
:10033000000000080000000000000000010011247F
:100340001FBECEEFD2E0DEBFCDBF11E0A0E0B1E036
:10035000EEEAFFE002C005900D92A830B107D9F790
:1003600011E0A8E0B1E001C01D92A434B107E1F7AB
:100370000E94B7070C94D5070C9400008230F9F066
:10038000833040F0833009F1843091F085B180678B
:1003900085B90895882339F08130C1F785B18F7808
:1003A00085B92C9A089585B18F7885B92D9A0895CD
:1003B00085B18F7885B985B1806385B9089585B198
:1003C0008F7885B985B185B9089585B18F7885B95C
:1003D0002E9A089581E080936F00089581B180671F
:1003E00081B98CB580658CBD8DB581608DBD08955A
:1003F0000F931F938EBD0DB407FEFDCF9EBD0DB4B0
:1004000007FEFDCF6EBD0DB407FEFDCF7EBD0DB462
:1004100007FEFDCF4EBD0DB407FEFDCF5EBD0DB492
:1004200007FEFDCF2EBD0DB407FEFDCF3EBD0DB4C2
:1004300007FEFDCF0EBD0DB407FEFDCF1EBD0DB4F2
:1004400007FEFDCF169A16981F910F910895CF932E
:10045000DF93C82FD0E0CE010E94BE0124E0CE0180
:10046000880F991F880F991F8C0F9D1FE22FF0E0B6
:10047000DC01AE0FBF1FAA0FBB1FA85FBE4F3C9190
:100480003EBD0DB407FEFDCFDC01AE0FBF1FAA0FAE
:10049000BB1FA85FBE4F11963C9111973EBD0DB496
:1004A00007FEFDCFE80FF91FEE0FFF1FE85FFE4FBD
:1004B00011821082222311F02150D8CF169A16985B
:1004C0008FE697E10197F1F700C00000DF91CF912F
:1004D0000895FF920F931F93FF24F3948F2D815063
:1004E0008230E1F08330E0F4813009F441C080E0F3
:1004F0000E94BE018FEF9FEF6FEF7FEF4FEF5FEF37
:100500002FEF3FEF0FEF1FEF0E94F8018F2D853087
:10051000D0F4F3948F2D8150823021F782E018C0FF
:100520008330A9F0843019F784E00E94BE018FEF78
:100530009FEF6FEF7FEF4FEF5FEF2FEF3FEF0FEF8B
:100540001FEF0E94F8011F910F91FF90089583E023
:100550000E94BE018FEF9FEF6FEF7FEF4FEF5FEFD6
:100560002FEF3FEF0FEF1FEF0E94F801F394D2CF70
:1005700081E0EECFFF920F931F93F0903B018F2D00
:100580000E94BE010091050110910601011511059F
:10059000E1F480910301882309F44BC01092030118
:1005A00021E030E0220F331F3093430120934201BA
:1005B000E0913C01F0913D0160913E0170913F015D
:1005C00040914001509141011BC08091040188235A
:1005D00009F07CC0000F111F109306010093050164
:1005E000E0913C01F0913D0160913E0170913F012D
:1005F00040914001509141012091420130914301CD
:10060000CF010E94F8018FE798E3A1E0815090406C
:10061000A040E1F700C000008FEF94E3ACE0815010
:100620009040A040E1F700C000001F910F91FF90A3
:10063000089520914201309143012115310509F0BF
:10064000B1CF80910201882309F053C0409140014D
:10065000509141014115510509F04FC080910101B0
:10066000882309F05BC000913E0110913F01011504
:10067000110509F057C080910001882309F062C07C
:10068000E0913C01F0913D01309709F05FC021E01D
:1006900030E0309306012093050181E08093000152
:1006A00080930101809302018093030180930401F0
:1006B0008F2D8F5F65E00E94C90790933B019F01DA
:1006C000AF0160E070E001E010E09ACF1092040109
:1006D000E0913C01F0913D0160913E0170913F013C
:1006E00040914001509141012091420130914301DC
:1006F00087CF1092020141E050E0440F551F509304
:10070000410140934001E0913C01F0913D01609135
:100710003E0170913F0100E010E072CF10920101A4
:1007200001E010E0B801660F771F70933F016093FE
:100730003E01E0913C01F0913D0100E010E020E03D
:1007400030E05ECF10920001E1E0F0E0EE0FFF1F1D
:10075000F0933D01E0933C0120E030E040E050E0C8
:1007600060E070E04DCF0F931F9383B180958F7041
:100770008230D1F0833040F5882381F1813061F1FE
:1007800080E00E94BE0180E092E060E070E040E026
:1007900050E020E030E000E010E00E94F80183B17A
:1007A00080958F70823031F782E00E94BE0180E038
:1007B00090E060E070E040E051E020E032E000E0F6
:1007C00010E00E94F801D1CF843021F08830C1F6CA
:1007D00084E0EBCF83E0E9CF81E0E7CF80E0E5CFB5
:1007E000DF92EF92FF920F931F93CF93DF937A01E3
:1007F0008B0140E550E020E030E090E0EC01CC0FD0
:10080000DD1FCC0FDD1FC80FD91FCC0FDD1FC85F48
:10081000DE4FD801C701022E04C0B695A795979563
:1008200087950A94D2F780FF12C0DE01CA0165E005
:10083000D62EFC0165917491ED91FC911197E62BF8
:10084000F72BED93FD93DA940296DD2091F72F5F5D
:100850003F4F465F5F4F29313105D9F6DF91CF9188
:100860001F910F91FF90EF90DF900895DF92EF922C
:10087000FF920F931F93CF93DF937A018B0144E490
:1008800052E020E030E090E0EC01CC0FDD1FCC0F17
:10089000DD1FC80FD91FCC0FDD1FC85FDE4FD80189
:1008A000C701022E04C0B695A795979587950A941F
:1008B000D2F780FF12C0DE01CA01F5E0DF2EFC0195
:1008C00065917491ED91FC911197E62BF72BED93C7
:1008D000FD93DA940296DD2091F72F5F3F4F465F3C
:1008E0005F4F29313105D9F6DF91CF911F910F91DB
:1008F000FF90EF90DF900895DF92EF92FF920F93B9
:100900001F93CF93DF937A018B014AE451E020E0FB
:1009100030E090E0EC01CC0FDD1FCC0FDD1FC80FE5
:10092000D91FCC0FDD1FC85FDE4FD801C701022ED3
:1009300004C0B695A795979587950A94D2F780FF3E
:1009400012C0DE01CA0165E0D62EFC0165917491EA
:10095000ED91FC911197E62BF72BED93FD93DA9433
:100960000296DD2091F72F5F3F4F465F5F4F2931A1
:100970003105D9F6DF91CF911F910F91FF90EF9044
:10098000DF9008956F927F928F929F92BF92CF9245
:10099000DF92EF92FF920F931F93B82E3801490117
:1009A0000E94F0038B2DB401A3010E9436048B2D0D
:1009B000B701A6010E947C041F910F91FF90EF9058
:1009C000DF90CF90BF909F908F907F906F90089511
:1009D00080E00E94270281E00E94270282E00E94BC
:1009E000270283E00E94270284E00E9427020895E4
:1009F000E8E0F1E0118210821382128215821482E3
:100A000017821682118610863A9681E0EA33F8073B
:100A100089F70895CF92DF92EF92FF920F931F9381
:100A2000CF93DF93C0E0D0E0C831D10508F460C2B5
:100A3000C8E1D0E080E040EE53E060E070E000E02C
:100A400010E09801CC24DD2476010E94C20481E0EC
:100A500040E050E0BA0100EE13E020E030E00E94F8
:100A6000C20482E040E050E0BA0100E010E09801EA
:100A700090EEC92E93E0D92EE12CF12C0E94C204F5
:100A800083E040E050E0BA0100E010E098010E94ED
:100A9000C20484E040E050E0BA0100EE13E020E040
:100AA00030E0CC24DD2476010E94C2040E94E804D8
:100AB000219709F0BFCFC8E1D0E080E040E05CE7DB
:100AC00060E070E000E010E09801CC24DD247601C5
:100AD0000E94C20481E040E050E0BA0100E01CE75F
:100AE00020E030E00E94C20482E040E050E0BA0121
:100AF00000E010E09801C12CBCE7DB2EE12CF12CCA
:100B00000E94C20483E040E050E0BA0100E010E03F
:100B100098010E94C20484E040E050E0BA0100E085
:100B20001CE720E030E0CC24DD2476010E94C204E2
:100B30000E94E804219709F0C0CFC8E1D0E080E02E
:100B400040E050E86FE070E000E010E09801CC2455
:100B5000DD2476010E94C20481E040E050E0BA0149
:100B600000E010E82FE030E00E94C20482E040E0A4
:100B700050E0BA0100E010E09801C12CA0E8DA2EA4
:100B8000AFE0EA2EF12C0E94C20483E040E050E086
:100B9000BA0100E010E098010E94C20484E040E045
:100BA00050E0BA0100E010E82FE030E0CC24DD2472
:100BB00076010E94C2040E94E804219709F0BFCF89
:100BC000C8E1D0E080E040E050E060EF71E000E09C
:100BD00010E09801CC24DD2476010E94C20481E05B
:100BE00040E050E0BA0100E010E020EF31E00E9468
:100BF000C20482E040E050E0BA0100E010E0980159
:100C0000C12CD12CF0EFEF2EF1E0FF2E0E94C20498
:100C100083E040E050E0BA0100E010E098010E945B
:100C2000C20484E040E050E0BA0100E010E020EFB0
:100C300031E0CC24DD2476010E94C2040E94E80445
:100C4000219709F0BFCFC8E1D0E080E040E050E854
:100C50006FE070E000E010E09801CC24DD24760124
:100C60000E94C20481E040E050E0BA0100E010E8D8
:100C70002FE030E00E94C20482E040E050E0BA0180
:100C800000E010E09801C12CE0E8DE2EEFE0EE2E4F
:100C9000F12C0E94C20483E040E050E0BA0100E081
:100CA00010E098010E94C20484E040E050E0BA01E4
:100CB00000E010E82FE030E0CC24DD2476010E9433
:100CC000C2040E94E804219709F0BFCFC8E1D0E038
:100CD00080E040E05CE760E070E000E010E0980158
:100CE000CC24DD2476010E94C20481E040E050E083
:100CF000BA0100E01CE720E030E00E94C20482E07C
:100D000040E050E0BA0100E010E09801C12C9CE7FF
:100D1000D92EE12CF12C0E94C20483E040E050E087
:100D2000BA0100E010E098010E94C20484E040E0B3
:100D300050E0BA0100E01CE720E030E0CC24DD24E4
:100D400076010E94C2040E94E804219709F0C0CFF6
:100D5000C8E1D0E080E040EE53E060E070E000E009
:100D600010E09801CC24DD2476010E94C20481E0C9
:100D700040E050E0BA0100EE13E020E030E00E94D5
:100D8000C20482E040E050E0BA0100E010E09801C7
:100D9000B0EECB2EB3E0DB2EE12CF12C0E94C2048E
:100DA00083E040E050E0BA0100E010E098010E94CA
:100DB000C20484E040E050E0BA0100EE13E020E01D
:100DC00030E0CC24DD2476010E94C2040E94E804B5
:100DD000219709F0BFCFC8E1D0E080E04FEF5FEF8F
:100DE0006FEF71E000E010E09801CC24DD24760183
:100DF0000E94C20481E040E050E0BA010FEF1FEF13
:100E00002FEF31E00E94C20482E040E050E0BA01DE
:100E100000E010E09801AFEFCA2EAFEFDA2EAFEF8F
:100E2000EA2EA1E0FA2E0E94C20483E040E050E0E6
:100E3000BA0100E010E098010E94C20484E040E0A2
:100E400050E0BA010FEF1FEF2FEF31E0CC24DD248B
:100E500076010E94C2040E94E804219709F0BDCFE8
:100E6000C8E1D0E080E04FE150E060E070E000E0F9
:100E700010E09801CC24DD2476010E94C20481E0B8
:100E800040E050E0BA010FE110E020E030E00E94C5
:100E9000C20482E040E050E0BA0100E010E09801B6
:100EA000FFE1CF2ED12CE12CF12C0E94C20483E073
:100EB00040E050E0BA0100E010E098010E94C20456
:100EC00084E040E050E0BA010FE110E020E030E0C3
:100ED000CC24DD2476010E94C2040E94E8042197FC
:100EE00009F0C0CFC8E1D0E0C831D10508F0A0CDED
:100EF00080E04FE150E060E070E000E010E0980139
:100F0000CC24DD2476010E94C20481E040E050E060
:100F1000BA010FE110E020E030E00E94C20482E05C
:100F200040E050E0BA0100E010E09801EFE1CE2E81
:100F3000D12CE12CF12C0E94C20483E040E050E06F
:100F4000BA0100E010E098010E94C20484E040E091
:100F500050E0BA010FE110E020E030E0CC24DD24C5
:100F600076010E94C2040E94E80421965DCD84B1FE
:100F7000806784B985B18F6085B981B1806781B997
:100F80008CB580658CBD8DB581608DBD0E940A05D4
:100F9000FDCF991B79E004C0991F961708F0961BA6
:0E0FA000881F7A95C9F780950895F894FFCFC1
:080FAE00010101010101000035
:00000001FF
