:100000000C949F010C94BC010C94BC010C94F3075C
:100010000C94BC010C94BC010C94BC010C94BC016C
:100020000C94BC010C94BC010C94BC010C94BC015C
:100030000C94BC010C94BC010C94BC010C94BC014C
:100040000C94BC010C94BC010C94BC010C94BC013C
:10005000000002000000000000000000001000008E
:10006000000000000000000000010000000000008F
:100070000000080000000000000000000400000074
:10008000000000001000000000000000000000015F
:100090000000000000000000000000100000000050
:1000A0000000000000200000000000000000000030
:1000B00001000000000080000000000000000008B7
:1000C0000000000000000000000000000000100020
:1000D0000000000000000000000800000000000018
:1000E000000000010000010000000000000000000E
:1000F00000010000000000000000000000000000FF
:10010000800000000000000000000000400000002F
:1001100000000000000002000800000000000000D5
:1001200000002000000000000000000000000000AF
:10013000000000000001000000000000000000209E
:10014000000000000000000000400000010000006E
:10015000000000000000002000000000000000007F
:1001600000008000000000000000000010000000FF
:100170000000000000000200000000000000080075
:10018000000000000000000000020000000000006D
:100190000000000000080000000000000000004017
:1001A00000000000000000000000008000000000CF
:1001B00040000000000000000010000000000000EF
:1001C0000000000000000000080000000000000027
:1001D000000000100000000000000000000200000D
:1001E000008000000000000000000002000000008D
:1001F00000000000000000000000400000000000BF
:1002000000000000000020000000000000000000CE
:100210000400040000000000000000004000000096
:1002200000000000000000000000000000000002CC
:1002300000000000000000000010000000000000AE
:1002400000000080000000800000000000000000AE
:10025000004000000000000000000000400000001E
:10026000000000000000200000000000000000006E
:100270000100000000000000040000000000000079
:100280000000000400000000000000000000000466
:1002900000000000000000000080000000000000DE
:1002A00000000000004000000000200000000000EE
:1002B000000000200000000000000000000000001E
:1002C000000004000000000000000000002000000A
:1002D00000000000000000040000004000000000DA
:1002E000000000000004000000000000000000000A
:1002F00000000000200000000000000000000000DE
:1003000010000000000000000000080002000000D3
:10031000000000000000800000000000000000005D
:1003200000000000000000000004000000000000C9
:10033000000000080000000000000000010011247F
:100340001FBECEEFD2E0DEBFCDBF11E0A0E0B1E036
:10035000EEE9F1E102C005900D92A036B107D9F7A0
:1003600011E0A0E6B1E001C01D92A339B107E1F7A9
:100370000E94CF060C94CD080C9400008230F1F05E
:10038000833040F08330F9F0843099F085B1806794
:1003900085B90895882339F08130C1F785B18F7808
:1003A00085B92C9A089585B18F7885B985B185B9BD
:1003B000089585B18F7885B92E9A089585B18F7883
:1003C00085B92D9A089585B18F7885B985B18063F7
:1003D00085B908951F93182F0E94BE01812F90E0C8
:1003E00044E09C01220F331F220F331F280F391FB7
:1003F000E42FF0E0D901AE0FBF1FAA0FBB1FA05A18
:10040000BE4F8C918EBD0DB407FEFDCFD901AE0F4E
:10041000BF1FAA0FBB1FA05ABE4F11968C911197F8
:100420008EBD0DB407FEFDCFE20FF31FEE0FFF1FD1
:10043000E05AFE4F11821082442311F04150D8CF70
:10044000169A16988FEF90E7A2E081509040A04056
:10045000E1F700C000001F910895DF92EF92FF9234
:100460000F931F93CF93DF937A018B0140E550E008
:1004700020E030E090E0EC01CC0FDD1FCC0FDD1F61
:10048000C80FD91FCC0FDD1FC05ADE4FD801C701DE
:10049000022E04C0B695A795979587950A94D2F732
:1004A00080FF12C0DE01CA0175E0D72EFC01659104
:1004B0007491ED91FC911197E62BF72BED93FD9341
:1004C000DA940296DD2091F72F5F3F4F465F5F4F32
:1004D00029313105D9F6DF91CF911F910F91FF900E
:1004E000EF90DF900895DF92EF92FF920F931F93AA
:1004F000CF93DF937A018B0144E452E020E030E0B7
:1005000090E0EC01CC0FDD1FCC0FDD1FC80FD91F11
:10051000CC0FDD1FC05ADE4FD801C701022E04C028
:10052000B695A795979587950A94D2F780FF12C044
:10053000DE01CA0165E0D62EFC0165917491ED9152
:10054000FC911197E62BF72BED93FD93DA9402962D
:10055000DD2091F72F5F3F4F465F5F4F2931310517
:10056000D9F6DF91CF911F910F91FF90EF90DF901F
:100570000895DF92EF92FF920F931F93CF93DF9333
:100580007A018B014AE451E020E030E090E0EC0198
:10059000CC0FDD1FCC0FDD1FC80FD91FCC0FDD1F07
:1005A000C05ADE4FD801C701022E04C0B695A795E8
:1005B000979587950A94D2F780FF12C0DE01CA0191
:1005C000F5E0DF2EFC0165917491ED91FC9111979E
:1005D000E62BF72BED93FD93DA940296DD2091F74D
:1005E0002F5F3F4F465F5F4F29313105D9F6DF91CD
:1005F000CF911F910F91FF90EF90DF9008956F9230
:100600007F928F929F92BF92CF92DF92EF92FF9252
:100610000F931F93B82E380149010E942D028B2D94
:10062000B401A3010E9473028B2DB701A6010E94A1
:10063000B9021F910F91FF90EF90DF90CF90BF9084
:100640009F908F907F906F90089585B18F7885B936
:1006500085B185B90895CF92DF92EF92FF920F9303
:100660001F93CF93DF93EC01598140E02A81922FB1
:10067000992780E0482B592B888190E0482B592BF3
:10068000662757FD6095762F088910E0000F111F2F
:10069000000F111F000F111F8F8590E08770082B2E
:1006A000192B2989922F990F990F990F80E0082B08
:1006B000192B222717FD2095322FC8A0DD240024F6
:1006C000D694C7940794D694C7940794DC2CC02C76
:1006D0008F8D90E08F73C82AD92AE9A19E2F929519
:1006E000990F990F907C80E0C82AD92AEE24D7FC74
:1006F000E094FE2C0E94FF024C8150E05695542F4E
:100700004427579547958B8190E08F77482B592B3D
:100710002D81922F97959927979580E0482B592BFB
:10072000662757FD6095762F0B8910E0000F111F8B
:10073000000F111F8A8990E08370082B192B2C89D8
:10074000922F990F990F80E0082B192B222717FD64
:100750002095322FCBA0DD24CC0CDD1CC294D2948A
:1007600080EFD822DC24C822DC248AA190E08F719B
:10077000C82AD92AECA19E2F9295990F907E80E0ED
:10078000C82AD92AEE24D7FCE094FE2C81E00E94EE
:10079000FF024F8150E000245695479507945695E7
:1007A00047950794542F402D8E8190E08F73482BEE
:1007B000592B2885922F9295990F990F907C80E064
:1007C000482B592B662757FD6095762F0E8910E030
:1007D000000F111F8D8990E08170082B192B2F8934
:1007E000922F990F80E0082B192B288D922F992793
:1007F00080E0082B192B222717FD2095322FCEA041
:10080000DD24C294D294A0EFDA22DC24CA22DC24B4
:100810008DA190E08F70C82AD92AEFA19E2F9295C2
:10082000907F80E0C82AD92AEE24D7FCE094FE2CE1
:1008300082E00E94FF024A8550E0440F551F429516
:100840005295507F5427407F5427898590E08F71BF
:10085000482B592B2B85922F9295990F907E80E0F3
:10086000482B592B662757FD6095762F1A8D00E08F
:100870002B8D922F992780E0082B192B898D90E0E2
:10088000082B192B222717FD2095322FC9A4DD2410
:10089000CC0CDD1CCC0CDD1CCC0CDD1C88A590E048
:1008A0008770C82AD92AEAA59E2F990F990F990F08
:1008B00080E0C82AD92AEE24D7FCE094FE2C83E0FD
:1008C0000E94FF024D8550E042955295507F54277B
:1008D000407F54278C8590E08F70482B592B2E85B4
:1008E000922F9295907F80E0482B592B662757FDD9
:1008F0006095762F0D8D10E01695102F0027179517
:1009000007958C8D90E08F77082B192B2E8D922FC9
:1009100097959927979580E0082B192B222717FD8B
:100920002095322FCCA4DD24CC0CDD1CCC0CDD1C9E
:100930008BA590E08370C82AD92AEDA59E2F990F28
:10094000990F80E0C82AD92AEE24D7FCE094FE2C27
:1009500084E00E94FF02DF91CF911F910F91FF90E1
:10096000EF90DF90CF900895CF92DF92EF92FF92B9
:100970000F931F93CF93DF93EC01598140E02A81BD
:10098000922F992780E0482B592B888190E0482BA3
:10099000592B662757FD6095762F088910E0000FC8
:1009A000111F000F111F000F111F8F8590E0807E17
:1009B000082B192B2989922F990F990F990F80E0F5
:1009C000082B192B222717FD2095322FC8A0DD24D4
:1009D0000024D694C7940794D694C7940794DC2C2B
:1009E000C02C8F8D90E08C7FC82AD92AE9A19E2F38
:1009F0009295990F990F907C80E0C82AD92AEE240D
:100A0000D7FCE094FE2C0E94FF024C8150E05695EA
:100A1000542F4427579547958B8190E08E7F482B24
:100A2000592B2D81922F97959927979580E0482BE8
:100A3000592B662757FD6095762F0B8910E0000F24
:100A4000111F000F111F8A8990E0807C082B192B41
:100A50002C89922F990F990F80E0082B192B2227B0
:100A600017FD2095322FCBA0DD24CC0CDD1CC294C9
:100A7000D294E0EFDE22DC24CE22DC248AA190E0B6
:100A8000887FC82AD92AECA19E2F9295990F907E33
:100A900080E0C82AD92AEE24D7FCE094FE2C81E01D
:100AA0000E94FF024F8150E000245695479507941D
:100AB000569547950794542F402D8E8190E08C7F5A
:100AC000482B592B2885922F9295990F990F907C3E
:100AD00080E0482B592B662757FD6095762F0E89AD
:100AE00010E0000F111F8D8990E08078082B192BE2
:100AF0002F89922F990F80E0082B192B288D922F88
:100B0000992780E0082B192B222717FD2095322FDB
:100B1000CEA0DD24C294D29480EFD822DC24C82257
:100B2000DC248DA190E0807FC82AD92AEFA19E2FD6
:100B30009295907F80E0C82AD92AEE24D7FCE094D1
:100B4000FE2C82E00E94FF024A8550E0440F551FB0
:100B500042955295507F5427407F5427898590E0D5
:100B6000887F482B592B2B85922F9295990F907E39
:100B700080E0482B592B662757FD6095762F1A8DFC
:100B800000E02B8D922F992780E0082B192B898D5F
:100B900090E0082B192B222717FD2095322FC9A48E
:100BA000DD24CC0CDD1CCC0CDD1CCC0CDD1C88A5A4
:100BB00090E0807EC82AD92AEAA59E2F990F990F26
:100BC000990F80E0C82AD92AEE24D7FCE094FE2CA5
:100BD00083E00E94FF024D8550E042955295507F80
:100BE0005427407F54278C8590E0807F482B592BD9
:100BF0002E85922F9295907F80E0482B592B662767
:100C000057FD6095762F0D8D10E01695102F00275B
:100C1000179507958C8D90E08E7F082B192B2E8DC4
:100C2000922F97959927979580E0082B192B2227CB
:100C300017FD2095322FCCA4DD24CC0CDD1CCC0C70
:100C4000DD1C8BA590E0807CC82AD92AEDA59E2FBB
:100C5000990F990F80E0C82AD92AEE24D7FCE09496
:100C6000FE2C84E00E94FF02C0E0D0E08C2F0E94A6
:100C7000BE0124E0CE01880F991F880F991F8C0FA9
:100C80009D1FE22FF0E0DC01AE0FBF1FAA0FBB1FBC
:100C9000A05ABE4F3C913EBD0DB407FEFDCFDC0116
:100CA000AE0FBF1FAA0FBB1FA05ABE4F11963C919B
:100CB00011973EBD0DB407FEFDCFE80FF91FEE0FF3
:100CC000FF1FE05AFE4F11821082222311F02150A3
:100CD000D8CF169A1698C430D10549F4DF91CF9138
:100CE0001F910F91FF90EF90DF90CF9008958FE9C3
:100CF0009FE00197F1F700C000002196C530D105B3
:100D000009F0B4CFEBCFCF93DF93EC0104C08AE1BD
:100D10008A95F1F700C0CE0160E20E947A0888232C
:100D2000B1F7DF91CF9108950F931F93CF93DF9386
:100D3000EC018B0103C0CE010E94B4040E94A807FD
:100D40008823C9F3C8010E94C80781E0DF91CF91D1
:100D50001F910F910895E62FF0E03197E80FF91FEA
:100D60002081322F3F5F30832F512B3510F020E24E
:100D700020830E94830608950E9496078FE798E3D8
:100D8000A1E081509040A040E1F700C0000008952C
:100D90000E942908089583B180958F7008958F92DD
:100DA0009F92AF92BF92CF92DF92EF92FF920F93FA
:100DB0001F93DF93CF93CDB7DEB7C056D0400FB6A9
:100DC000F894DEBF0FBECDBF84B1806784B985B112
:100DD0008F6085B90E94BC067E010894E11CF11C5D
:100DE000D701E0E4F1E080E201900D928150E1F75B
:100DF0008E010F5D1F4FD801E0E0F1E080E401902B
:100E00000D928150E1F778940E94290833E0C32EB7
:100E1000D12CCC0EDD1E20E2A22EB12CA00EB11ED4
:100E20008824839491E1992EC801B70140E20E9481
:100E300094068130C9F789818130B1F78A81843085
:100E4000A1F0883089F7F601D50181918D93E017E3
:100E5000F107D9F789829A8283B180958F708B834D
:100E6000C70160E20E948306DFCFF601D8018191BD
:100E70008D93E017F107D9F789829A8283B1809523
:100E80008F708B8304C08AE18A95F1F700C0C70197
:100E900060E20E947A088823B1F78981813021F6C7
:100EA0008A81CFCF81B1806781B98CB580658CBDD7
:100EB0008DB581608DBD08958EBD0DB407FEFDCF4B
:100EC0008EB50895662361F0E82FF92F80E09191A7
:100ED0009EBD0DB407FEFDCF9EB58F5F8617B8F39C
:100EE00008958FEF8EBD0DB407FEFDCF8EB508952A
:100EF000E82FF92F80E21EBC0DB407FEFDCF9EB592
:100F000091938150C1F70895442379F0A82FB92F08
:100F1000E62FF72F80E09D919EBD0DB407FEFDCF1B
:100F20009EB591938F5F8417B0F3089581B183606C
:100F300081B91198109AE8E6F0E0808181608083A1
:100F4000EBE6F0E08081886080830E94520708957C
:100F500080919201882311F080E0089510980E94FA
:100F60007107109A80740895DF93CF930F92CDB7D5
:100F7000DEB710988F71806269830E945C07698177
:100F8000862F0E945C07109A0F90CF91DF910895F1
:100F9000CF93DF93EC01109881E60E945C07CE01AD
:100FA000BE0140E20E948407109A87E060E40E943C
:100FB000B407DF91CF91089580919201882309F4BD
:100FC0000895109880E00E945C07109A119880E0C4
:100FD0006BE40E94B407119A1092920187E060E3DB
:100FE0000E94B40708951F920F920FB60F9211241A
:100FF0002F933F934F935F936F937F938F939F9321
:10100000AF93BF93EF93FF9380919201882381F078
:1010100010980E947107109A119880E06BE40E946A
:10102000B407119A1092920187E060E30E94B4071E
:10103000FF91EF91BF91AF919F918F917F916F91B0
:101040005F914F913F912F910F900FBE0F901F9086
:10105000189585E062E00E94B40781E160E20E9499
:10106000B4071092920180E06BE40E94B407119AD9
:1010700008950F931F93DF93CF930F92CDB7DEB7F1
:101080008B0110988F7149830E945C07C801B801D9
:1010900049810E948407109A0F90CF91DF911F9190
:1010A0000F9108950F931F93DF93CF930F92CDB7B6
:1010B000DEB78B0110988F71806249830E945C07B4
:1010C000C8014981642F0E946207109A0F90CF9146
:1010D000DF911F910F910895BC0180E145E00E94CE
:1010E00052080895BC0111988AE045E00E94520818
:1010F000119A0895EF92FF920F931F93DF93CF936E
:101100000F92CDB7DEB78C01F62EEFB6F8941982A8
:1011100087E0BE016F5F7F4F41E00E9439081B9955
:1011200015C0898185FD0EC0EFBE80919201882394
:10113000A1F08FEF0F90CF91DF911F910F91FF9052
:10114000EF90089580919201882371F30E94DC074B
:10115000EFBE80919201882361F7119881E080931E
:10116000920180E06AE40E94B407109881EE0E9428
:101170005C07109A109880EA0E945C07C8016F2DE6
:101180000E946207109A119A80E00F90CF91DF9130
:0E1190001F910F91FF90EF900895F894FFCFFC
:10119E006162636465666768696A6B6C6D6E6F70B9
:1011AE007172737475767778797A41424344454605
:1011BE006162636465666768696A6B6C6D6E6F7099
:1011CE007172737475767778797A414243444546E5
:1011DE006162636465666768696A6B6C6D6E6F7079
:1011EE007172737475767778797A414243444546C5
:00000001FF
