:100000000C94EA010C9407020C9407020C9407026A
:100010000C94C40F0C9407020C9407020C94070272
:100020000C9407020C943E0F0C9407020C940702E8
:100030000C9407020C9407020C9407020C9407021C
:100040000C9407020C9407020C9407020C9407020C
:10005000C504AE0497045204520469041306FC0557
:10006000E505CE05B705B4059D0586056F056C054C
:10007000690552053B05240521050A05F3048004A2
:10008000DC040E08F707E007C907B2079B078407DF
:100090006D0756073F07280725070E07F706E006F6
:1000A000DD06DA06C306AC06950692067B066406F4
:1000B0004D062508200A090AF209DB09C409AD0921
:1000C00096097F09680951093A0937092009090980
:1000D000F208EF08EC08D508BE08A708A4088D08A8
:1000E00076085F08370A00000200000000000000E8
:1000F00000000010000000000000000000000001EF
:1001000000000000000000001800000000000000D7
:1001100000001800000000000000100000000000B7
:1001200000000000000100000000000000000000CE
:10013000001000000000000000000020000000008F
:10014000000000000000010000000000800000002E
:100150000000000000080000000000000000000097
:100160000000000010000000000000000000000877
:10017000000000000000000000010000010000007D
:10018000000000000000000100000000000000006E
:1001900000000000000080000000000000000000DF
:1001A00000004000000000000000000002001800F5
:1001B000000000000000000020000000000000001F
:1001C000000000000000000000000001000000002E
:1001D00000000000002000000000000000000040BF
:1001E00000000100000000000000000000200000EE
:1001F000000000000000000080000000000000007F
:1002000000001000000000000000000002000000DC
:1002100000000000180000000000000000000002C4
:1002200000000000000000000000000800000000C6
:10023000000000000040000000000000000000007E
:1002400000800000000040000000000000000010DE
:100250000000000000000000000000000000180086
:10026000000000000000000000100000000000007E
:1002700000000002000000800000000000000000FC
:10028000000200000000000000000000000000006C
:1002900040000000000000000000000020000000FE
:1002A000000000000000180018000000000000001E
:1002B00000004000000000000000000000000000FE
:1002C000000000000002000000000000000000101C
:1002D000000000000000000000800000008000001E
:1002E00000000000000000400000000000000000CE
:1002F000000040000000000000000000200000009E
:1003000000000000000001000000000000001800D4
:1003100000000000000000000004000000000000D9
:100320000000000000040000000000000000008049
:10033000000000000000000000000040000000007D
:10034000200000000000000000200000000000006D
:100350000000000000000000180000000000000085
:100360000000002000000000000000000004000069
:100370000040000000000000000000040000000039
:10038000000000000000000000002000000000004D
:10039000000000000000100000000000000000004D
:1003A00018000200000000000000000080000000B3
:1003B0000000000000000000000000000000000439
:1003C0000000000000000000000800000000000025
:1003D0000000010011241FBECEEFD2E0DEBFCDBF72
:1003E00011E0A0E0B1E0E0E8F1E202C005900D927A
:1003F000A834B107D9F711E0A8E4B1E001C01D921B
:10040000AA38B107E1F70E945A0F0C94BE100C9461
:10041000000081E080936F0008958230F1F0833016
:1004200040F08330F9F0843099F085B1806785B968
:100430000895882339F08130C1F785B18F7885B967
:100440002C9A089585B18F7885B985B185B90895BD
:1004500085B18F7885B92E9A089585B18F7885B941
:100460002D9A089585B18F7885B985B1806385B956
:1004700008950F931F938EBD0DB407FEFDCF9EBD53
:100480000DB407FEFDCF6EBD0DB407FEFDCF7EBDE2
:100490000DB407FEFDCF4EBD0DB407FEFDCF5EBD12
:1004A0000DB407FEFDCF2EBD0DB407FEFDCF3EBD42
:1004B0000DB407FEFDCF0EBD0DB407FEFDCF1EBD72
:1004C0000DB407FEFDCF169A16981F910F9108954F
:1004D0001F93182F0E940D02812F90E044E09C0191
:1004E000220F331F220F331F280F391FE42FF0E094
:1004F000D901AE0FBF1FAA0FBB1FA85BBE4F8C91C7
:100500008EBD0DB407FEFDCFD901AE0FBF1FAA0FE0
:10051000BB1FA85BBE4F11968C9111978EBD0DB479
:1005200007FEFDCFE20FF31FEE0FFF1FE85BFE4F4C
:1005300011821082442311F04150D8CF169A169898
:100540008FE697E10197F1F700C000001F91089531
:10055000FF920F931F93FF24F3948F2D81508230CD
:10056000E1F08330E0F4813009F441C080E00E9482
:100570000D028FEF9FEF6FEF7FEF4FEF5FEF2FEFEA
:100580003FEF0FEF1FEF0E9439028F2D8530D0F41F
:10059000F3948F2D8150823021F782E018C0833090
:1005A000A9F0843019F784E00E940D028FEF9FEFCD
:1005B0006FEF7FEF4FEF5FEF2FEF3FEF0FEF1FEF8B
:1005C0000E9439021F910F91FF90089583E00E94CD
:1005D0000D028FEF9FEF6FEF7FEF4FEF5FEF2FEF8A
:1005E0003FEF0FEF1FEF0E943902F394D2CF81E06B
:1005F000EECFFF920F931F93F09080018F2D0E94FA
:100600000D02009145011091460101151105E1F41B
:1006100080914301882309F44BC01092430121E0EB
:1006200030E0220F331F3093880120938701E0913F
:100630008101F09182016091830170918401409168
:100640008501509186011BC080914401882309F0E7
:100650007CC0000F111F1093460100934501E091EB
:100660008101F09182016091830170918401409138
:100670008501509186012091870130918801CF0139
:100680000E9439028FE798E3A1E081509040A0409A
:10069000E1F700C000008FEF94E3ACE081509040A0
:1006A000A040E1F700C000001F910F91FF90089556
:1006B00020918701309188012115310509F0B1CFD2
:1006C00080914201882309F053C0409185015091E7
:1006D00086014115510509F04FC0809141018823E1
:1006E00009F05BC00091830110918401011511058F
:1006F00009F057C080914001882309F062C0E09161
:100700008101F0918201309709F05FC021E030E073
:10071000309346012093450181E08093400180930E
:1007200041018093420180934301809344018F2DC6
:100730008F5F65E00E94B210909380019F01AF012E
:1007400060E070E001E010E09ACF10924401E09187
:100750008101F09182016091830170918401409147
:10076000850150918601209187013091880187CFC2
:100770001092420141E050E0440F551F5093860112
:1007800040938501E0918101F091820160918301A4
:100790007091840100E010E072CF1092410101E0FD
:1007A00010E0B801660F771F709384016093830196
:1007B000E0918101F091820100E010E020E030E062
:1007C0005ECF10924001E1E0F0E0EE0FFF1FF093EA
:1007D0008201E093810120E030E040E050E060E001
:1007E00070E04DCF0F931F9383B180958F7082304F
:1007F000D1F0833040F5882381F1813061F180E0D0
:100800000E940D0280E092E060E070E040E050E085
:1008100020E030E000E010E00E94390283B18095D2
:100820008F70823031F782E00E940D0280E090E00C
:1008300060E070E040E051E020E032E000E010E0F5
:100840000E943902D1CF843021F08830C1F684E093
:10085000EBCF83E0E9CF81E0E7CF80E0E5CF90E028
:10086000019789319105A8F0109249011092480131
:1008700010924B0110924A0110924D0110924C01BE
:1008800010924F0110924E0110925101109250019E
:100890000895885D9F4FFC01EE0FFF1F0590F491B6
:1008A000E02D0994109249011092480110924B01D9
:1008B00010924A0188E190E090934D0180934C01A1
:1008C00010924F0110924E0110925101109250015E
:1008D0000895109249011092480180E190E09093B0
:1008E0004B0180934A0110924D0110924C011092DD
:1008F0004F0110924E011092510110925001089533
:10090000109249011092480110924B0110924A0135
:1009100010924D0110924C0110924F0110924E0115
:1009200080E090E2909351018093500108951092DD
:1009300049011092480110924B0110924A0180E047
:1009400091E090934D0180934C0110924F011092D1
:100950004E011092510110925001089510924901D8
:100960001092480180E090E190934B0180934A01FE
:1009700010924D0110924C0110924F0110924E01B5
:100980001092510110925001089510924901109255
:10099000480182E090E090934B0180934A011092CD
:1009A0004D0110924C0110924F0110924E01109285
:1009B000510110925001089510924901109248017E
:1009C00010924B0110924A0110924D0110924C016D
:1009D00010924F0110924E0180E090E490935101EB
:1009E000809350010895109249011092480110928D
:1009F0004B0110924A0110924D0110924C0110923D
:100A00004F0110924E0180E091E09093510180934C
:100A10005001089580E290E090934901809348014D
:100A200010924B0110924A0110924D0110924C010C
:100A300010924F0110924E011092510110925001EC
:100A4000089588E190E0E8CF1092490110924801A2
:100A500010924B0110924A0110924D0110924C01DC
:100A600010924F0110924E0182E090E0909351015C
:100A700080935001089510924901109248011092FC
:100A80004B0110924A0110924D0110924C011092AC
:100A90004F0110924E0180E490E0909351018093B9
:100AA00050010895109249011092480110924B0193
:100AB00010924A0110924D0110924C0180E890E092
:100AC00090934F0180934E0110925101109250016A
:100AD000089580E091E0A0CF81E090E09DCF10925A
:100AE00049011092480110924B0110924A01109254
:100AF0004D0110924C0180E091E090934F01809362
:100B00004E01109251011092500108951092490126
:100B10001092480110924B0110924A0110924D011F
:100B200010924C0180E098E090934F0180934E0129
:100B300010925101109250010895109249011092A3
:100B4000480110924B0110924A0110924D011092EF
:100B50004C0180E190E090934F0180934E01109200
:100B6000510110925001089580E098E055CF109205
:100B700049011092480180E890E090934B018093E6
:100B80004A0110924D0110924C0110924F011092A7
:100B90004E01109251011092500108951092490196
:100BA0001092480110924B0110924A0110924D018F
:100BB00010924C0181E090E090934F0180934E01A0
:100BC0001092510110925001089510924901109213
:100BD000480110924B0110924A0180E090E29093FC
:100BE0004D0180934C0110924F0110924E011092D2
:100BF000510110925001089510924901109248013C
:100C000010924B0110924A0180E090E190934D01C7
:100C100080934C0110924F0110924E01109251019D
:100C2000109250010895109249011092480180E0FD
:100C300091E090934B0180934A0110924D011092E4
:100C40004C0110924F0110924E01109251011092DE
:100C50005001089590E0019789319105A8F0109214
:100C600049011092480110924B0110924A011092D2
:100C70004D0110924C0110924F0110924E011092B2
:100C800051011092500108958F5B9F4FFC01EE0FB0
:100C9000FF1F0590F491E02D0994109249011092E4
:100CA000480110924B0110924A0110924D0110928E
:100CB0004C0110924F0110924E0180E090E1909310
:100CC00051018093500108951092490110924801FA
:100CD00010924B0110924A0110924D0110924C015A
:100CE00010924F0110924E0180E092E090935101DA
:100CF00080935001089580E490E09093490180939F
:100D0000480110924B0110924A0110924D0110922D
:100D10004C0110924F0110924E011092510110920D
:100D20005001089588E190E0E8CF109249011092B7
:100D3000480110924B0110924A0110924D011092FD
:100D40004C0110924F0110924E0188E190E0909377
:100D50005101809350010895109249011092480169
:100D600010924B0110924A0110924D0110924C01C9
:100D700010924F0110924E0180E290E09093510149
:100D800080935001089510924901109248011092E9
:100D90004B0110924A0110924D0110924C0180E4D7
:100DA00090E090934F0180934E0110925101109268
:100DB0005001089580E092E0A0CF80E090E89DCFC0
:100DC000109249011092480110924B0110924A0171
:100DD00010924D0110924C0180E092E090934F01EF
:100DE00080934E011092510110925001089510927B
:100DF00049011092480110924B0110924A01109241
:100E00004D0110924C0180E090E190934F0180934E
:100E10004E01109251011092500108951092490113
:100E20001092480110924B0110924A0110924D010C
:100E300010924C0188E190E090934F0180934E0115
:100E40001092510110925001089580E090E155CF29
:100E5000109249011092480180E490E090934B0178
:100E600080934A0110924D0110924C0110924F0153
:100E700010924E011092510110925001089510925B
:100E800049011092480110924B0110924A011092B0
:100E90004D0110924C0180E090E890934F018093B7
:100EA0004E01109251011092500108951092490183
:100EB0001092480110924B0110924A0180E090E498
:100EC00090934D0180934C0110924F0110924E016E
:100ED0001092510110925001089510924901109200
:100EE000480110924B0110924A0180E098E09093E3
:100EF0004D0180934C0110924F0110924E011092BF
:100F00005101109250010895109249011092480128
:100F100080E092E090934B0180934A0110924D0142
:100F200010924C0110924F0110924E0110925101FB
:100F3000109250010895109249011092480188E1E1
:100F400090E090934B0180934A0110924D011092D2
:100F50004C0110924F0110924E01109251011092CB
:100F600050010895109249011092480110924B01CE
:100F700010924A0182E090E090934D0180934C01E1
:100F800010924F0110924E01109251011092500197
:100F90000895109249011092480110924B0110924D
:100FA0004A0180E190E090934D0180934C011092B2
:100FB0004F0110924E01109251011092500108956C
:100FC000109249011092480110924B0110924A016F
:100FD00080E890E090934D0180934C0110924F0176
:100FE00010924E01109251011092500108951092EA
:100FF00049011092480180E090E290934B01809368
:101000004A0110924D0110924C0110924F01109222
:101010004E01109251011092500108951092490111
:101020001092480181E090E090934B0180934A0137
:1010300010924D0110924C0110924F0110924E01EE
:10104000109251011092500108951092490110928E
:10105000480110924B0110924A0110924D011092DA
:101060004C0110924F0110924E0180E090E8909355
:10107000510180935001089590E0019789319105C5
:10108000A8F0109249011092480110924B01109261
:101090004A0110924D0110924C0110924F01109292
:1010A0004E0110925101109250010895865A9F4F9F
:1010B000FC01EE0FFF1F0590F491E02D09941092B2
:1010C00049011092480110924B0110924A0110926E
:1010D0004D0110924C0110924F0110924E0180E090
:1010E00098E0909351018093500108951092490126
:1010F0001092480110924B0110924A0110924D013A
:1011000010924C0110924F0110924E0180E094E039
:101110009093510180935001089580E890E090935E
:1011200049018093480110924B0110924A0110929C
:101130004D0110924C0110924F0110924E011092ED
:10114000510110925001089582E090E0E8CF109292
:1011500049011092480110924B0110924A011092DD
:101160004D0110924C0110924F0110924E0188E1F6
:1011700090E090935101809350010895109249019D
:101180001092480110924B0110924A0110924D01A9
:1011900010924C0110924F0110924E0180E190E0AC
:1011A000909351018093500108951092490110923B
:1011B000480110924B0110924A0110924D01109279
:1011C0004C0180E290E090934F0180934E01109289
:1011D000510110925001089580E094E0A0CF80E08A
:1011E00090E49DCF109249011092480110924B015A
:1011F00010924A0110924D0110924C0180E094E04F
:1012000090934F0180934E01109251011092500122
:101210000895109249011092480110924B011092CA
:101220004A0110924D0110924C0180E090E290939F
:101230004F0180934E011092510110925001089578
:10124000109249011092480110924B0110924A01EC
:1012500010924D0110924C0188E190E090934F0163
:1012600080934E011092510110925001089580E038
:1012700090E255CF109249011092480180E290E02F
:1012800090934B0180934A0110924D0110924C01B2
:1012900010924F0110924E01109251011092500184
:1012A0000895109249011092480110924B0110923A
:1012B0004A0110924D0110924C0180E090E490930D
:1012C0004F0180934E0110925101109250010895E8
:1012D000109249011092480110924B0110924A015C
:1012E00080E090E890934D0180934C0110924F0163
:1012F00010924E01109251011092500108951092D7
:1013000049011092480110924B0110924A0180E06D
:1013100094E090934D0180934C0110924F011092F4
:101320004E011092510110925001089510924901FE
:101330001092480180E094E090934B0180934A0121
:1013400010924D0110924C0110924F0110924E01DB
:10135000109251011092500108951092490110927B
:10136000480188E190E090934B0180934A011092EC
:101370004D0110924C0110924F0110924E011092AB
:1013800051011092500108951092490110924801A4
:1013900010924B0110924A0181E090E090934D0130
:1013A00080934C0110924F0110924E011092510106
:1013B0001092500108951092490110924801109224
:1013C0004B0110924A0180E290E090934D0180938E
:1013D0004C0110924F0110924E0110925101109247
:1013E00050010895109249011092480110924B014A
:1013F00010924A0180E490E090934D0180934C015B
:1014000010924F0110924E01109251011092500112
:101410000895109249011092480180E090E4909361
:101420004B0180934A0110924D0110924C01109291
:101430004F0110924E0110925101109250010895E7
:10144000109249011092480180E090E890934B017E
:1014500080934A0110924D0110924C0110924F015D
:1014600010924E0110925101109250010895109265
:1014700049011092480110924B0110924A011092BA
:101480004D0110924C0110924F0110924E0181E0DB
:1014900090E0909351018093500108950F931F9312
:1014A000DF93CF930F92CDB7DEB7082F842F6983D8
:1014B0000E940D026981013039F1013008F10230DA
:1014C00019F4862F0E943C0860914E0170914F01E3
:1014D00040914C0150914D0120914A0130914B01B6
:1014E0000091480110914901809150019091510162
:1014F0000E9439020F90CF91DF911F910F910895B3
:10150000862F0E942F04E0CF862F0E942A06DCCF70
:10151000EF92FF920F931F93DF93CF930F92CDB76C
:10152000DEB710927F0180E060917E0140917D01E5
:101530000E944E0A01E015E08FEF94E3ACE0815089
:101540009040A040E1F700C0000090917F019F5FB4
:1015500090937F019330E8F4F0907E01E0907D015C
:10156000892F6F2D4E2D99830E944E0A99819230BA
:1015700019F78F2D8F5F80937E018A31E9F60093F2
:101580007E018E2D8F5F612F0E94B21090937D019E
:10159000D3CF0F90CF91DF911F910F91FF90EF90DC
:1015A0000895DF92EF92FF920F931F93CF93DF93F3
:1015B0007A018B0146EE50E020E030E090E0EC0153
:1015C000CC0FDD1FCC0FDD1FC80FD91FCC0FDD1FC7
:1015D000C85BDE4FD801C701022E04C0B695A7959F
:1015E000979587950A94D2F780FF12C0DE01CA0151
:1015F00065E0D62EFC0165917491ED91FC911197F7
:10160000E62BF72BED93FD93DA940296DD2091F70C
:101610002F5F3F4F465F5F4F29313105D9F6DF918C
:10162000CF911F910F91FF90EF90DF900895DF927F
:10163000EF92FF920F931F93CF93DF937A018B0169
:101640004AED52E020E030E090E0EC01CC0FDD1FED
:10165000CC0FDD1FC80FD91FCC0FDD1FC85BDE4FBD
:10166000D801C701022E04C0B695A7959795879516
:101670000A94D2F780FF12C0DE01CA01F5E0DF2E26
:10168000FC0165917491ED91FC911197E62BF72B7C
:10169000ED93FD93DA940296DD2091F72F5F3F4F93
:1016A000465F5F4F29313105D9F6DF91CF911F9108
:1016B0000F91FF90EF90DF900895DF92EF92FF92ED
:1016C0000F931F93CF93DF937A018B0140EE51E08C
:1016D00020E030E090E0EC01CC0FDD1FCC0FDD1FEF
:1016E000C80FD91FCC0FDD1FC85BDE4FD801C70163
:1016F000022E04C0B695A795979587950A94D2F7C0
:1017000080FF12C0DE01CA0165E0D62EFC016591A2
:101710007491ED91FC911197E62BF72BED93FD93CE
:10172000DA940296DD2091F72F5F3F4F465F5F4FBF
:1017300029313105D9F6DF91CF911F910F91FF909B
:10174000EF90DF9008956F927F928F929F92BF9259
:10175000CF92DF92EF92FF920F931F93B82E380132
:1017600049010E94D10A8B2DB401A3010E94170BDD
:101770008B2DB701A6010E945D0B1F910F91FF9069
:10178000EF90DF90CF90BF909F908F907F906F9061
:10179000089580E00E94680281E00E94680282E071
:1017A0000E94680283E00E94680284E00E9468024E
:1017B0000895E8E4F1E0118210821382128215820A
:1017C000148217821682118610863A9681E0EA37D3
:1017D000F80789F70895CF92DF92EF92FF920F9367
:1017E0001F93CF93DF93C0E0D0E0C831D10508F458
:1017F00060C2C8E1D0E080E040EE53E060E070E01D
:1018000000E010E09801CC24DD2476010E94A30BB7
:1018100081E040E050E0BA0100EE13E020E030E06B
:101820000E94A30B82E040E050E0BA0100E010E02B
:10183000980190EEC92E93E0D92EE12CF12C0E9454
:10184000A30B83E040E050E0BA0100E010E0980113
:101850000E94A30B84E040E050E0BA0100EE13E0E8
:1018600020E030E0CC24DD2476010E94A30B0E940E
:10187000C90B219709F0BFCFC8E1D0E080E040E07C
:101880005CE760E070E000E010E09801CC24DD242B
:1018900076010E94A30B81E040E050E0BA0100E035
:1018A0001CE720E030E00E94A30B82E040E050E023
:1018B000BA0100E010E09801C12CBCE7DB2EE12C5E
:1018C000F12C0E94A30B83E040E050E0BA0100E05D
:1018D00010E098010E94A30B84E040E050E0BA01C0
:1018E00000E01CE720E030E0CC24DD2476010E94FB
:1018F000A30B0E94C90B219709F0C0CFC8E1D0E02B
:1019000080E040E050E86FE070E000E010E0980117
:10191000CC24DD2476010E94A30B81E040E050E05E
:10192000BA0100E010E82FE030E00E94A30B82E053
:1019300040E050E0BA0100E010E09801C12CA0E8BE
:10194000DA2EAFE0EA2EF12C0E94A30B83E040E0F8
:1019500050E0BA0100E010E098010E94A30B84E07F
:1019600040E050E0BA0100E010E82FE030E0CC2485
:10197000DD2476010E94A30B0E94C90B219709F078
:10198000BFCFC8E1D0E080E040E050E060EF71E020
:1019900000E010E09801CC24DD2476010E94A30B26
:1019A00081E040E050E0BA0100E010E020EF31E0DB
:1019B0000E94A30B82E040E050E0BA0100E010E09A
:1019C0009801C12CD12CF0EFEF2EF1E0FF2E0E94F8
:1019D000A30B83E040E050E0BA0100E010E0980182
:1019E0000E94A30B84E040E050E0BA0100E010E068
:1019F00020EF31E0CC24DD2476010E94A30B0E946D
:101A0000C90B219709F0BFCFC8E1D0E080E040E0EA
:101A100050E86FE070E000E010E09801CC24DD2495
:101A200076010E94A30B81E040E050E0BA0100E0A3
:101A300010E82FE030E00E94A30B82E040E050E08D
:101A4000BA0100E010E09801C12CE0E8DE2EEFE0E2
:101A5000EE2EF12C0E94A30B83E040E050E0BA018F
:101A600000E010E098010E94A30B84E040E050E009
:101A7000BA0100E010E82FE030E0CC24DD2476014C
:101A80000E94A30B0E94C90B219709F0BFCFC8E1A8
:101A9000D0E080E040E05CE760E070E000E010E073
:101AA0009801CC24DD2476010E94A30B81E040E064
:101AB00050E0BA0100E01CE720E030E00E94A30BF8
:101AC00082E040E050E0BA0100E010E09801C12C53
:101AD0009CE7D92EE12CF12C0E94A30B83E040E07F
:101AE00050E0BA0100E010E098010E94A30B84E0EE
:101AF00040E050E0BA0100E01CE720E030E0CC24F8
:101B0000DD2476010E94A30B0E94C90B219709F0E6
:101B1000C0CFC8E1D0E080E040EE53E060E070E08C
:101B200000E010E09801CC24DD2476010E94A30B94
:101B300081E040E050E0BA0100EE13E020E030E048
:101B40000E94A30B82E040E050E0BA0100E010E008
:101B50009801B0EECB2EB3E0DB2EE12CF12C0E94ED
:101B6000A30B83E040E050E0BA0100E010E09801F0
:101B70000E94A30B84E040E050E0BA0100EE13E0C5
:101B800020E030E0CC24DD2476010E94A30B0E94EB
:101B9000C90B219709F0BFCFC8E1D0E080E04FEF3B
:101BA0005FEF6FEF71E000E010E09801CC24DD24DE
:101BB00076010E94A30B81E040E050E0BA010FEFF4
:101BC0001FEF2FEF31E00E94A30B82E040E050E0D6
:101BD000BA0100E010E09801AFEFCA2EAFEFDA2EA5
:101BE000AFEFEA2EA1E0FA2E0E94A30B83E040E0C3
:101BF00050E0BA0100E010E098010E94A30B84E0DD
:101C000040E050E0BA010FEF1FEF2FEF31E0CC249E
:101C1000DD2476010E94A30B0E94C90B219709F0D5
:101C2000BDCFC8E1D0E080E04FE150E060E070E07F
:101C300000E010E09801CC24DD2476010E94A30B83
:101C400081E040E050E0BA010FE110E020E030E038
:101C50000E94A30B82E040E050E0BA0100E010E0F7
:101C60009801FFE1CF2ED12CE12CF12C0E94A30B87
:101C700083E040E050E0BA0100E010E098010E94EB
:101C8000A30B84E040E050E0BA010FE110E020E057
:101C900030E0CC24DD2476010E94A30B0E94C90B06
:101CA000219709F0C0CFC8E1D0E0C831D10508F0D4
:101CB000A0CD80E04FE150E060E070E000E010E097
:101CC0009801CC24DD2476010E94A30B81E040E042
:101CD00050E0BA010FE110E020E030E00E94A30BD9
:101CE00082E040E050E0BA0100E010E09801EFE14E
:101CF000CE2ED12CE12CF12C0E94A30B83E040E0EE
:101D000050E0BA0100E010E098010E94A30B84E0CB
:101D100040E050E0BA010FE110E020E030E0CC24D8
:101D2000DD2476010E94A30B0E94C90B21965DCD94
:101D3000CF92DF92EF92FF920F931F9380917A01DF
:101D4000882309F042C080E04FE150E060E070E09D
:101D500000E010E09801CC24DD2476010E94A30B62
:101D600081E040E050E0BA010FE110E020E030E017
:101D70000E94A30B82E040E050E0BA0100E010E0D6
:101D80009801AFE1CA2ED12CE12CF12C0E94A30BBB
:101D900083E040E050E0BA0100E010E098010E94CA
:101DA000A30B84E040E050E0BA010FE110E020E036
:101DB00030E0CC24DD2476010E94A30B0E94C90BE5
:101DC00080917A01882309F4BECF81E080937A0163
:101DD00080E040E05CE760E070E000E010E0980147
:101DE000CC24DD2476010E94A30B81E040E050E08A
:101DF000BA0100E01CE720E030E00E94A30B82E083
:101E000040E050E0BA0100E010E09801C12CFCE78E
:101E1000DF2EE12CF12C0E94A30B83E040E050E088
:101E2000BA0100E010E098010E94A30B84E040E0BA
:101E300050E0BA0100E01CE720E030E0CC24DD24D3
:101E400076010E94A30B0E94C90BC2CF80911F0193
:101E5000982F9F5F90931F018F518B3518F080E270
:101E600080931F0180E091E060E20E944B108FE1BF
:101E70009EE40197F1F700C0000008951F920F92B1
:101E80000FB60F9211248F939F9380917B019091B5
:101E90007C018830910538F081E080937A011092BE
:101EA0007C0110927B019F918F910F900FBE0F903C
:101EB0001F90189584B1806784B985B18F6085B90A
:101EC0000E946F1081E080936F000E947E0F8FE769
:101ED00098E3A1E081509040A040E1F700C00000ED
:101EE000789487E060E271E041E00E940A100E946D
:101EF000FA0F0E94260F0E94EB0BFBCF84B18C607F
:101F000084B92B982A9AE8E6F0E080818260808389
:101F1000ECE6F0E08081806180830E946F1008957C
:101F200080918901882311F080E008952A980E9409
:101F30008E102A9A80740895DF93CF930F92CDB7B5
:101F4000DEB72A988F71806269830E947910698157
:101F5000862F0E9479102A9A0F90CF91DF910895D1
:101F6000CF93DF93EC012A9881E60E947910CE018D
:101F7000BE0140E20E94A0102A9A87E060E40E941D
:101F80009C0FDF91CF9108951F920F920FB60F9281
:101F900011242F933F934F935F936F937F938F936E
:101FA0009F93AF93BF93EF93FF9380918901882311
:101FB00081F02A980E948E102A9A2B9880E06BE478
:101FC0000E949C0F2B9A1092890187E060E30E9487
:101FD0009C0FFF91EF91BF91AF919F918F917F9156
:101FE0006F915F914F913F912F910F900FBE0F9086
:101FF0001F90189585E062E00E949C0F81E160E2ED
:102000000E949C0F1092890180E06BE40E949C0F5B
:102010002B9A08950F931F93DF93CF930F92CDB711
:10202000DEB78B012A988F7149830E947910C8010D
:10203000B80149810E94A0102A9A0F90CF91DF9198
:102040001F910F9108950F931F93DF93CF930F92DA
:10205000CDB7DEB78B012A988F71806249830E94C9
:102060007910C8014981642F0E947F102A9A0F902D
:10207000CF91DF911F910F910895BC0180E145E060
:102080000E9423100895BC012B988AE045E00E942D
:1020900023102B9A08951F93CF93DF93EC01162FF3
:1020A000809189018823E1F72B9881E08093890151
:1020B00080E06AE40E949C0F2A9881EE0E947910C9
:1020C0002A9A2A9880EA0E947910CE01612F0E94F4
:1020D0007F102A9A2B9ADF91CF911F91089581B199
:1020E000806781B98CB580658CBD8DB581608DBDF3
:1020F00008958EBD0DB407FEFDCF8EB508956623FD
:1021000061F0E82FF92F80E091919EBD0DB407FE9C
:10211000FDCF9EB58F5F8617B8F308951EBC0DB432
:1021200007FEFDCF8EB50895E82FF92F80E21EBC83
:102130000DB407FEFDCF9EB591938150C1F7089570
:10214000442379F0A82FB92FE62FF72F80E09D9137
:102150009EBD0DB407FEFDCF9EB591938F5F841792
:10216000B0F30895991B79E004C0991F961708F001
:10217000961B881F7A95C9F780950895F894FFCF2C
:10218000202020202020202020202020202020204F
:10219000202020202020202020202020202020203F
:1021A000202020202020202020202020202020202F
:1021B000202020202020202020202020202020201F
:0821C000010101010101000011
:00000001FF
