:100000000C9428000C9432000C9432000C943200B2
:100010000C9432000C9432000C9432000C94320098
:100020000C9432000C9432000C9432000C94320088
:100030000C9432000C9432000C9432000C94320078
:100040000C9432000C9432000C9432000C94320068
:1000500011241FBECEEFD2E0DEBFCDBF0E947E00D6
:100060000C948A000C94000081B1806781B98CB532
:1000700081658CBD8DB581608DBD08950F931F93F3
:100080008EBD0DB407FEFDCF9EBD0DB407FEFDCFA6
:100090006EBD0DB407FEFDCF7EBD0DB407FEFDCFD6
:1000A0004EBD0DB407FEFDCF5EBD0DB407FEFDCF06
:1000B0002EBD0DB407FEFDCF3EBD0DB407FEFDCF36
:1000C0000EBD0DB407FEFDCF1EBD0DB407FEFDCF66
:1000D000169A16981F910F9108950F931F938FEF03
:1000E00090E06FEF70E04FEF50E02FEF30E00FEF58
:1000F00010E00E943E001F910F91089581B180672A
:1001000081B98CB581658CBD8DB581608DBD0E9436
:080110006D00FDCFF894FFCF54
:00000001FF
