:100000000C9428000C9445000C9445000C94450079
:100010000C9445000C9445000C9445000C9445004C
:100020000C9445000C9445000C9445000C9445003C
:100030000C9445000C9445000C9445000C9445002C
:100040000C9445000C9445000C9445000C9445001C
:1000500011241FBECEEFD2E0DEBFCDBF11E0A0E085
:10006000B1E0E8EDF3E002C005900D92A430B107D5
:10007000D9F711E0A4E0B1E001C01D92A530B107AD
:10008000E1F70E94CF010C94EA010C94000081B1C9
:10009000806781B98CB581658CBD8DB581608DBD62
:1000A00008950F931F938EBD0DB407FEFDCF9EBD27
:1000B0000DB407FEFDCF6EBD0DB407FEFDCF7EBDB6
:1000C0000DB407FEFDCF4EBD0DB407FEFDCF5EBDE6
:1000D0000DB407FEFDCF2EBD0DB407FEFDCF3EBD16
:1000E0000DB407FEFDCF0EBD0DB407FEFDCF1EBD46
:1000F0000DB407FEFDCF169A16981F910F91089523
:100100008230F1F0833040F08330F9F0843099F0A0
:1001100085B1806785B90895882339F08130C1F7AA
:1001200085B18F7885B92C9A089585B18F7885B976
:1001300085B185B9089585B18F7885B92E9A0895CE
:1001400085B18F7885B92D9A089585B18F7885B955
:1001500085B1806385B908950F931F938FEF90E069
:100160006FEF70E04FEF50E02FEF30E00FEF10E057
:100170000E9451001F910F9108950F931F938FEFCD
:1001800090E06FEF70E04FEF50E02FEF30E00FEFB7
:1001900010E00E94510081E00E9480008FEF94E304
:1001A000ACE081509040A040E1F700C000008FEF2C
:1001B00094E3ACE081509040A040E1F700C0000023
:1001C00080E09FEF60E07FEF40E05FEF20E03FEFF7
:1001D00000E01FEF0E94510086E00E9480008FEF38
:1001E00094E3ACE081509040A040E1F700C00000F3
:1001F0008FEF94E3ACE081509040A040E1F700C065
:1002000000001F910F9108956EBD0DB407FEFDCF44
:10021000272F382F492F55272EBD0DB407FEFDCFB0
:100220009C01442755272EBD0DB407FEFDCF692F35
:100230007727882799276EBD0DB407FEFDCF169A44
:10024000169808958FEF8EBD0DB407FEFDCF8FEF8A
:100250008EBD0DB407FEFDCF8FEF8EBD0DB407FE32
:10026000FDCF8FEF8EBD0DB407FEFDCF2F9A2F98D7
:1002700008956FEF70E080E090E00E94040108951F
:1002800060E070E0CB010E940401089560E070E03E
:1002900080E091E00E940401089560E071E080E058
:1002A00090E00E940401089560E070E0CB010E949C
:1002B0000401089560E070E0CB010E9404010895FC
:1002C000EF92FF920F931F936091000170910101D3
:1002D00080910201909103016115710581059105DD
:1002E000C1F452E0E52EF12C012D112D61E070E0FA
:1002F00080E090E00E940401E0920001F092010190
:1003000000930201109303011F910F91FF90EF9052
:1003100008957B018C01EE0CFF1C001F111FEACF1A
:100320006FEF7FEFCB010E940401089560E070E061
:1003300081E090E00E940401089561E070E080E0B7
:1003400090E00E94040108951F931091040112305F
:1003500031F0133090F0133011F0143029F460E0D4
:1003600070E0CB010E940401812F8F5F65E00E9445
:10037000DE01909304011F910895112349F011307B
:1003800099F761E070E080E090E00E940401ECCF1A
:1003900060E070E081E090E00E940401E5CF84B16C
:1003A000806784B981B1806781B98CB581658CBD66
:1003B0008DB581608DBD0E94BD00FDCF991B79E098
:1003C00004C0991F961708F0961B881F7A95C9F7E5
:0803D00080950895F894FFCF19
:0403D8000100000020
:00000001FF
