:1000000012C02AC029C028C027C026C025C024C0CD
:1000100023C022C021C020C01FC01EC01DC01CC0E4
:100020001BC01AC019C011241FBECFEDCDBF10E0F8
:10003000A0E6B0E0E4E0F1E002C005900D92A03748
:10004000B107D9F710E0A0E7B0E001C01D92A037DA
:10005000B107E1F71DD054C0D3CF92B989B988E177
:100060008AB98EE083B908955D9BFECF8CB908955F
:100070005F9BFECF8CB10895FC018081882339F00D
:100080005D9BFECF8CB9319680818823C9F7089596
:10009000DF93CF93CDB7DEB760970FB6F894DEBF8E
:1000A0000FBECDBF12B883E389B988E18AB98EE06B
:1000B00083B9B99AB89A9E012F5F3F4FD901E0E604
:1000C000F0E080E101900D928150E1F7789490E0AA
:1000D000F901E90FF11DE0815D9BFECFECB9892F9D
:1000E0008F5F6FE001D0F4CF991B79E004C0991FB6
:1000F000961708F0961B881F7A95C9F78095089582
:04010000F894FFCFA1
:1001040068656C6C6F206E6F6F646C65212E2E7D3C
:00000001FF
