S00C0000776966692E7372656369
S113000012C02AC029C028C027C026C025C0CBC022
S113001023C022C021C059C21FC01EC01DC01CC0A5
S11300201BC01AC019C011241FBECFEDCDBF10E0F4
S1130030A0E6B0E0E2EEF6E002C005900D92A6382C
S1130040B107D9F710E0A6E8B0E001C01D92AC38C2
S1130050B107E1F70AD143C3D3CFCF93DF93EC01C8
S113006004C08AE18A95F1F700C0CE0160E2CFD2E4
S11300708823B9F7DF91CF9108950F931F93CF93FE
S1130080DF938C01C0E0D0E00AC087EC90E00197D8
S1130090F1F700C000002196C433D10559F0CCD14A
S11300A0882399F3C801E6D181E0DF91CF911F91B4
S11300B00F9108958FEFDF91CF911F910F910895C4
S11300C0E62FF0E03197E80FF91F20812F5F20839E
S11300D0203230F0DC011F962C911F972B3710F043
S11300E020E22083BADF0895EFE0F7E23197F1F7D9
S11300F000C00000C2DF08955F9B03C08CB15F990C
S1130100FDCF0895CF93DF9384E690E060E2B5DFFE
S1130110813081F080918700813019F0DF91CF9197
S1130120089584E690E060E298DF10928700DF9102
S1130130CF91089583E6BFD28AE0BDD2C0E0D0E07B
S1130140FE01EC59FF4F8081B6D22196C032D10511
S1130150B9F78AE0B0D2DECF682F85E079D108956F
S113016027D208958230C9F0833038F08430C1F04A
S1130170843058F4CB012FD20895882319F4CB018D
S11301803FD20895813031F008958530E9F7CB01ED
S113019014D20895CB012DD20895CB0123D2089512
S11301A0CB0112D208951F920F920FB60F92112411
S11301B02F933F934F935F936F937F938F939F936B
S11301C0AF93BF93EF93FF937AD2909188009923D2
S11301D029F490918700992309F43FC090918900F4
S11301E0992331F4909188009923F9F4809386003F
S11301F080918800803219F18091880090E0019606
S11302008F71907080938800FF91EF91BF91AF91AF
S11302109F918F917F916F915F914F913F912F911A
S11302200F900FBE0F901F901895E0918800F0E09A
S1130230EC59FF4F8083809188008032E9F68091E9
S11302408900813069F081E0809389008093870080
S113025081E631D28AE02FD2CFCF10928900BECF6F
S113026082E629D28AE027D2C7CFCF93DF938CE0EE
S113027090E01AD2D3D08FE798E3A1E08150904068
S1130280A040E1F700C00000789487E064E670E0E5
S113029041E05FD151D187E3809364008FEF90E711
S11302A0A2E081509040A040E1F700C0000087E048
S11302B060E3CED08FE798E3A1E081509040A04066
S11302C0E1F700C0000080E690E0FDD104C0809119
S11302D087008130D9F084E690E060E2CEDE8130A0
S11302E0B1F783E6E8D18AE0E6D1C0E0D0E0FE01D0
S11302F0EC59FF4F8081DFD12196C032D105B9F787
S11303008AE0D9D180918700813029F780918600D5
S11303108130E1F1813038F484E690E060E29DDEE2
S113032010928700D8CF8230D9F74091660060914F
S11303306700E09168002091690080916A00772746
S113034067FD7095762F6627FF27E7FDF095FF2759
S1130350EE276E2B7F2B552747FD5095642B752B6D
S1130360332727FD309533272227622B732B9927B8
S113037087FD909599278827682B792B80916400B5
S1130380813041F080916500EDDECACF8091640038
S1130390E3DECBCFCB010CD1C3CFBD98C59A87B3D5
S11303A0806C87BB8AE18DB908958FB980E48EB9DA
S11303B08BE18DB9769BFDCF8FB10895442391F0E5
S11303C0A82FB92FE62FF72F90E030E48BE12D9181
S11303D02FB93EB98DB9769BFDCF2FB121939F5F85
S11303E09417A8F30895662379F0E82FF92F90E085
S11303F030E48BE121912FB93EB98DB9769BFDCFC5
S11304002FB19F5F9617B0F308958FB980E48EB92A
S11304108BE18DB9769BFDCF8FB1089587B38C6046
S113042087BBC49AC398C29A8BB780628BBF80B5CE
S1130430806180BDB2DF089580918B00882311F024
S113044080E00895C2988FEFE0DFC29A8074089527
S1130450DF93CF930F92CDB7DEB7C2988F718062CE
S11304606983D3DF6981862FD0DFC29A0F90CF9141
S1130470DF910895CF93DF93EC01C29881E6C5DF45
S1130480CE01BE0140E29ADFC29AC29882EEBDDF7D
S1130490C29A87E060E4DCDFDF91CF910895809118
S11304A08B00882371F0C2988FEFAFDFC29AC39894
S11304B080E06BE4CDDFC39A10928B0087E060E3A9
S11304C0C7DF8AB780628ABF08951F920F920FB662
S11304D00F9211242F933F934F935F936F937F93C6
S11304E08F939F93AF93BF93EF93FF9380918B0070
S11304F0882371F0C2988FEF88DFC29AC39880E096
S11305006BE4A6DFC39A10928B0087E060E3A0DF60
S11305108AB780628ABFFF91EF91BF91AF919F919B
S11305208F917F916F915F914F913F912F910F9098
S11305300FBE0F901F90189585E062E089DF81E17E
S113054060E286DF10928B0080E06BE481DFC39A67
S113055008950F931F93DF93CF930F92CDB7DEB718
S11305608B01C2988F71498350DFC801B80149815A
S113057025DFC29A0F90CF91DF911F910F910895BB
S11305800F931F93DF93CF930F92CDB7DEB78B01F9
S1130590C2988F718062498338DFC8014981642F12
S11305A022DFC29A0F90CF91DF911F910F9108958E
S11305B0BC0180E145E0E4DF0895BC01C3988FE00D
S11305C045E0DEDFC39A0895BC01C3988EE045E0A0
S11305D0D7DFC39A0895BC01C3988DE045E0D0DF0E
S11305E0C39A0895BC01C3988CE045E0C9DFC39A5F
S11305F00895BC01C3988BE045E0C2DFC39A089517
S1130600BC01C3988AE045E0BBDFC39A0895EF922A
S1130610FF920F931F93DF93CF930F92CDB7DEB763
S11306208C01F62EEFB6F894198287E0BE016F5F55
S11306307F4F41E08EDFB49915C0898185FD0EC0DE
S1130640EFBE80918B00882399F08FEF0F90CF91AC
S1130650DF911F910F91FF90EF90089580918B008F
S1130660882371F31CDFEFBE80918B00882369F728
S1130670C39881E080938B0080E06AE4E9DEC2984D
S113068081EEC3DEC29AC29880EABFDEC8016F2D34
S1130690AADEC29AC39A80E00F90CF91DF911F9196
S11306A00F91FF90EF90089592B989B988E98AB9BA
S11306B08EE083B908955D9BFECF8CB908955F9B4E
S11306C0FECF8CB10895FC018081882339F03196E6
S11306D05D9BFECF8CB981918823D1F70895F8945E
S10506E0FFCF46
S11306E2730D0A003762636465666768696A6B6CD6
S11306F26D6E6F707172737475767778797A313240
S10907023334353601001A
S9030000FC
