:1000000012C02AC029C028C027C026C025C0A4C04D
:1000100023C022C021C0C1C11FC01EC01DC01CC042
:100020001BC01AC019C011241FBECFEDCDBF10E0F8
:10003000A0E6B0E0EAE7F5E002C005900D92A63830
:10004000B107D9F710E0A6E8B0E001C01D92AB38C7
:10005000B107E1F7D8D08FC2D3CFCF93DF93EC01B4
:1000600004C08AE18A95F1F700C0CE0160E21BD29C
:100070008823B9F7DF91CF9108950F931F93CF9302
:10008000DF938C01C0E0D0E00AC087EC90E00197DC
:10009000F1F700C000002196C433D10559F034D1E6
:1000A000882399F3C8014ED181E0DF91CF911F9150
:1000B0000F9108958FEFDF91CF911F910F910895C8
:1000C000E62FF0E03197E80FF91F20812F5F2083A2
:1000D000203230F0DC011F962C911F972B3710F047
:1000E00020E22083BADF0895EFE0F7E23197F1F7DD
:1000F00000C00000C2DF08955F9B03C08CB15F9910
:10010000FDCF0895CF93DF9384E690E060E2B5DF02
:10011000813081F080918600813019F0DF91CF919C
:10012000089584E690E060E298DF10928600DF9107
:10013000CF91089583E60BD28AE009D2C0E0D0E0E7
:10014000FE01EC59FF4F808102D22196C032D105C9
:10015000B9F78AE0FCD1DECF1F920F920FB60F9253
:1001600011242F933F934F935F936F937F938F93BC
:100170009F93AF93BF93EF93FF93EDD1909187003F
:10018000992321F490918600992339F19091880068
:10019000992331F4E0918700F0E0EC59FF4F808320
:1001A000809187008F31E1F08091870090E0019687
:1001B0008F71907080938700FF91EF91BF91AF9105
:1001C0009F918F917F916F915F914F913F912F916F
:1001D0000F900FBE0F901F90189510928800D6CFE9
:1001E00080918800813051F081E080938800809375
:1001F000860081E6ACD18AE0AAD1D6CF82E6A7D12B
:100200008AE0A5D1D1CF8CE090E09AD16FD08FE772
:1002100098E3A1E081509040A040E1F700C00000C9
:10022000789487E064E670E041E0FBD0EDD087E3AE
:10023000809364008FEF90E7A2E081509040A0404F
:10024000E1F700C0000087E060E36AD08FE798E341
:10025000A1E081509040A040E1F700C0000080E69E
:1002600090E07DD14FDF4EDFFDCFBD98C59A87B3BB
:10027000806C87BB8AE18DB908958FB980E48EB90F
:100280008BE18DB9769BFDCF8FB10895442391F01A
:10029000A82FB92FE62FF72F90E030E48BE12D91B6
:1002A0002FB93EB98DB9769BFDCF2FB121939F5FBA
:1002B0009417A8F30895662379F0E82FF92F90E0BA
:1002C00030E48BE121912FB93EB98DB9769BFDCFFA
:1002D0002FB19F5F9617B0F308958FB980E48EB960
:1002E0008BE18DB9769BFDCF8FB1089587B38C607C
:1002F00087BBC49AC398C29A8BB780628BBF80B504
:10030000806180BDB2DF089580918A00882311F05A
:1003100080E00895C2988FEFE0DFC29A807408955C
:10032000DF93CF930F92CDB7DEB7C2988F71806203
:100330006983D3DF6981862FD0DFC29A0F90CF9176
:10034000DF910895CF93DF93EC01C29881E6C5DF7A
:10035000CE01BE0140E29ADFC29AC29882EEBDDFB2
:10036000C29A87E060E4DCDFDF91CF91089580914D
:100370008A00882371F0C2988FEFAFDFC29AC398CA
:1003800080E06BE4CDDFC39A10928A0087E060E3DF
:10039000C7DF8AB780628ABF08951F920F920FB697
:1003A0000F9211242F933F934F935F936F937F93FB
:1003B0008F939F93AF93BF93EF93FF9380918A00A6
:1003C000882371F0C2988FEF88DFC29AC39880E0CB
:1003D0006BE4A6DFC39A10928A0087E060E3A0DF97
:1003E0008AB780628ABFFF91EF91BF91AF919F91D1
:1003F0008F917F916F915F914F913F912F910F90CE
:100400000FBE0F901F90189585E062E089DF81E1B3
:1004100060E286DF10928A0080E06BE481DFC39A9D
:1004200008950F931F93DF93CF930F92CDB7DEB74D
:100430008B01C2988F71498350DFC801B80149818F
:1004400025DFC29A0F90CF91DF911F910F910895F0
:100450000F931F93DF93CF930F92CDB7DEB78B012E
:10046000C2988F718062498338DFC8014981642F47
:1004700022DFC29A0F90CF91DF911F910F910895C3
:10048000BC0180E145E0E4DF0895BC01C3988AE047
:1004900045E0DEDFC39A0895BC01C3988BE045E0D8
:1004A000D7DFC39A0895EF92FF920F931F93DF93C4
:1004B000CF930F92CDB7DEB78C01F62EEFB6F8943E
:1004C000198287E0BE016F5F7F4F41E0AADFB499D8
:1004D00015C0898185FD0EC0EFBE80918A008823FA
:1004E00099F08FEF0F90CF91DF911F910F91FF90B7
:1004F000EF90089580918A00882371F338DFEFBE72
:1005000080918A00882369F7C39881E080938A00EC
:1005100080E06AE405DFC29881EEDFDEC29AC2980D
:1005200080EADBDEC8016F2DC6DEC29AC39A80E086
:100530000F90CF91DF911F910F91FF90EF90089551
:1005400092B989B988E98AB98EE083B908955D9B2B
:10055000FECF8CB908955F9BFECF8CB10895FC014E
:100560008081882339F031965D9BFECF8CB98191D3
:0A0570008823D1F70895F894FFCF17
:10057A00730D0A003762636465666768696A6B6C43
:10058A006D6E6F707172737475767778797A3132AD
:06059A0033343536010088
:00000001FF
