:100000000C9428000C9445000C9445000C94450079
:100010000C9407020C9445000C9445000C94450088
:100020000C9445000C9445000C9445000C9445003C
:100030000C9445000C9445000C9445000C9445002C
:100040000C9445000C9445000C9445000C9445001C
:1000500011241FBECEEFD2E0DEBFCDBF11E0A0E085
:10006000B1E0E2EAF4E002C005900D92A032B107DF
:10007000D9F711E0A0E2B1E001C01D92A132B107B1
:10008000E1F70E94FE000C944F020C9400000E94C5
:100090008F018FE19EE40197F1F700C00000089501
:1000A0009F92AF92BF92CF92DF92EF92FF920F9307
:1000B0001F93CF93DF93EC01162F00E0FF24AA24B7
:1000C000BB24CC24DD24EE2499242FC0002309F482
:1000D00044C0602F6F5F51E0601708F050E05F0D83
:1000E00041E05F1508F040E04A0D31E04A1508F0A4
:1000F00030E03B0D21E03B1508F020E02C0D91E0B5
:100100002C1508F090E09D0D81E09D1508F080E031
:100110008E0D71E08E1508F070E0062FF52EA42EDE
:10012000B32EC22ED92EE82E970E0E94FB018823F3
:1001300069F2CE010E94E701CE01612F0E943201D7
:1001400081E0DF91CF911F910F91FF90EF90DF90B1
:10015000CF90BF90AF909F900895FF2009F0B9CF46
:100160008A2D883009F0B5CFBB2009F0B2CFCC2062
:1001700009F0AFCFDD2009F0ACCFEE2009F0A9CF18
:10018000992009F0A6CF8FEFDCCFE62FF0E0319772
:10019000E80FF91F2081322F3F5F30832F512B351D
:1001A00010F020E220830E94470008951F93CF9310
:1001B000DF93EC01162F0E945000813029F0289A1D
:1001C000DF91CF911F910895CE01612F0E944700CA
:1001D000F7CF209A0E943D028FE798E3A1E081507B
:1001E0009040A040E1F700C000000895BC0187E006
:1001F00041E00E94D4010E947F0108950F931F9354
:10020000DF93CF93CDB7DEB7A0970FB6F894DEBFDC
:100210000FBECDBF0E94E9008E010F5F1F4FD801B6
:10022000E0E0F1E080E201900D928150E1F77894F6
:1002300088E68983C8010E94F600C80160E20E9436
:10024000D600FBCF81B1806781B98CB581658CBD4B
:100250008DB581608DBD08958EBD0DB407FEFDCFB7
:100260008EB50895482F662369F09C01F9018081BD
:100270008EBD0DB407FEFDCF8EB531968E2F841B3B
:100280008617A8F308951EBC0DB407FEFDCF8EB5EA
:100290000895AC0120E030E01EBC0DB407FEFDCF98
:1002A0008EB5FA01E20FF31F80832F5F3F4F20329C
:1002B000310591F70895DC01442399F020E030E006
:1002C000FD01E20FF31F80818EBD0DB407FEFDCF4F
:1002D0008EB5FB01E20FF31F80832F5F3F4F241782
:1002E00078F308951F93162F2A988F7180620E94C9
:1002F0002C01812F0E942C012A9A1F91089585E0DC
:1003000062E00E94720181E160E10E94720110923C
:10031000200180E06BE40E9472012B9A08951F93E4
:10032000CF93DF93EC01162F809120018823E1F712
:100330002B9881E08093200180E06AE40E947201A2
:100340002A9881EE0E942C012A9A2A9880EA0E941B
:100350002C01CE01612F0E9432012A9A2B9ADF9143
:10036000CF911F910895FF920F931F938B01F42E4D
:100370002A988F7180620E942C01C8016F2D0E9403
:1003800032012A9A1F910F91FF900895BC0180E1DC
:1003900045E00E94B3010895BC012B988AE045E036
:1003A0000E94B3012B9A0895FF920F931F938B0124
:1003B000F42E2A988F710E942C01C801B8014F2D8C
:1003C0000E945B012A9A1F910F91FF9008950F934D
:1003D0001F938C012A9881E60E942C01C801B80164
:1003E00040E10E945B012A9A87E060E40E9472016A
:1003F0001F910F91089580912001882311F080E0D2
:1004000008952A980E9443012A9A807408951F92A1
:100410000F920FB60F9211242F933F934F935F9338
:100420006F937F938F939F93AF93BF93EF93FF93BC
:1004300080912001882381F02A980E9443012A9A02
:100440002B9880E06BE40E9472012B9A109220019D
:1004500087E060E30E947201FF91EF91BF91AF913D
:100460009F918F917F916F915F914F913F912F91CC
:100470000F900FBE0F901F90189584B18C6084B9B7
:100480002B982A9AE8E6F0E0808182608083ECE68F
:10049000F0E08081806180830E9422010895F894B9
:0204A000FFCF8C
:1004A2002E656C6C6F206E6F6F646C65212E2E7DD5
:1004B2006C61756768206974207570205275746864
:00000001FF
