:100000000C9428000C9445000C9445000C94450079
:100010000C94C5010C9445000C9445000C944500CB
:100020000C9445000C9445000C9445000C9445003C
:100030000C9445000C9445000C9445000C9445002C
:100040000C9445000C9445000C9445000C9445001C
:1000500011241FBECEEFD2E0DEBFCDBF11E0A0E085
:10006000B1E0E4EEF4E002C005900D92A032B107D9
:10007000D9F711E0A0E2B1E001C01D92A132B107B1
:10008000E1F70E9409010C9470020C9400000E9498
:100090004C028FE19EE40197F1F700C00000089543
:1000A0009F92AF92BF92CF92DF92EF92FF920F9307
:1000B0001F93CF93DF93EC01162F00E0FF24AA24B7
:1000C000BB24CC24DD24EE2499242FC0002309F482
:1000D00044C0602F6F5F51E0601708F050E05F0D83
:1000E00041E05F1508F040E04A0D31E04A1508F0A4
:1000F00030E03B0D21E03B1508F020E02C0D91E0B5
:100100002C1508F090E09D0D81E09D1508F080E031
:100110008E0D71E08E1508F070E0062FF52EA42EDE
:10012000B32EC22ED92EE82E970E0E94910188235D
:1001300069F2CE010E94B101CE01612F0E943F0100
:1001400081E0DF91CF911F910F91FF90EF90DF90B1
:10015000CF90BF90AF909F900895FF2009F0B9CF46
:100160008A2D823009F0B5CFBB2009F0B2CFCC2068
:1001700009F0AFCFDD2009F0ACCFEE2009F0A9CF18
:10018000992009F0A6CF8FEFDCCFE62FF0E0319772
:10019000E80FF91F2081322F3F5F30832F512B351D
:1001A00010F020E220830E94470008951F93CF9310
:1001B000DF93EC01162F0E945000813029F0289A1D
:1001C000DF91CF911F910895CE01612F0E944700CA
:1001D000F7CF81B1836081B90E947F018FE798E3F7
:1001E000A1E081509040A040E1F700C000000895D8
:1001F000BC0187E041E00E940B020E94FB01119AC2
:100200000895109A089510980895119A08951198D4
:1002100008950F931F93DF93CF93CDB7DEB7A097C9
:100220000FB6F894DEBF0FBECDBF0E94E9008E016D
:100230000F5F1F4FD801E0E0F1E080E201900D92E6
:100240008150E1F77894C8010E94F80088E689831C
:1002500010981198C80160E20E94C500FBCF81B1DF
:10026000806781B98CB581658CBD8DB581608DBD90
:1002700008958EBD0DB407FEFDCF8EB50895482FAD
:10028000662369F09C01F90180818EBD0DB407FEE3
:10029000FDCF8EB531968E2F841B8617A8F3089557
:1002A0001EBC0DB407FEFDCF8EB50895AC0120E055
:1002B00030E01EBC0DB407FEFDCF8EB5FA01E20F93
:1002C000F31F80832F5F3F4F2032310591F7089550
:1002D000DC01442399F020E030E0FD01E20FF31F40
:1002E00080818EBD0DB407FEFDCF8EB5FB01E20F00
:1002F000F31F80832F5F3F4F241778F3089584B155
:100300008C6084B92B982A9AE8E6F0E080818260BC
:100310008083ECE6F0E08081806180830E942F0181
:10032000089580912001882311F080E008952A9893
:100330000E9450012A9A80740895DF93CF930F9200
:10034000CDB7DEB72A988F71806269830E94390128
:100350006981862F0E9439012A9A0F90CF91DF91EF
:100360000895CF93DF93EC012A9881E60E9439012A
:10037000CE01BE0140E20E9468012A9A87E060E453
:100380000E949D01DF91CF9108951F920F920FB6A9
:100390000F9211242F933F934F935F936F937F930B
:1003A0008F939F93AF93BF93EF93FF93809120011F
:1003B000882381F02A980E9450012A9A2B9880E085
:1003C0006BE40E949D012B9A1092200187E060E36C
:1003D0000E949D01FF91EF91BF91AF919F918F91ED
:1003E0007F916F915F914F913F912F910F900FBE31
:1003F0000F901F90189585E062E00E949D0181E1B9
:1004000060E20E949D011092200180E06BE40E9456
:100410009D012B9A08950F931F93DF93CF930F9213
:10042000CDB7DEB78B012A988F7149830E943901BD
:10043000C801B80149810E9468012A9A0F90CF91A2
:10044000DF911F910F9108950F931F93DF93CF9327
:100450000F92CDB7DEB78B012A988F7180624983E6
:100460000E943901C8014981642F0E943F012A9AE4
:100470000F90CF91DF911F910F910895BC0180E102
:1004800045E00E9424020895BC012B988AE045E0D3
:100490000E9424022B9A08951F93CF93DF93EC01BF
:1004A000162F809120018823E1F72B9881E080931B
:1004B000200180E06AE40E949D012A9881EE0E945A
:1004C00039012A9A2A9880EA0E943901CE01612FC7
:1004D0000E943F012A9A2B9ADF91CF911F91089594
:0404E000F894FFCFBE
:1004E4006162636465666768696A6B6C6D6E6F7080
:1004F4007172737475767778797A414243444546CC
:00000001FF
