S00F00006C6564637562652E7372656341
S11300000C942F080C944C080C944C080C9403107A
S11300100C944C080C944C080C944C080C944C080C
S11300200C944C080C944C080C944C080C944C08FC
S11300300C944C080C944C080C944C080C944C08EC
S11300400C944C080C944C080C944C080C944C08DC
S1130050000002000000000000000000001000008A
S1130060000000000000000000010000000000008B
S11300700000080000000000000000000400000070
S1130080000000001000000000000000000000015B
S1130090000000000000000000000010000000004C
S11300A0000000000020000000000000000000002C
S11300B001000000000080000000000000000008B3
S11300C0000000000000000000000000000010001C
S11300D00000000000000000000800000000000014
S11300E0000000010000010000000000000000000A
S11300F000010000000000000000000000000000FB
S1130100800000000000000000000000400000002B
S113011000000000000002000800000000000000D1
S113012000002000000000000000000000000000AB
S1130130000000000001000000000000000000209A
S1130140000000000000000000400000010000006A
S1130150000000000000002000000000000000007B
S113016000008000000000000000000010000000FB
S11301700000000000000200000000000000080071
S11301800000000000000000000200000000000069
S11301900000000000080000000000000000004013
S11301A000000000000000000000008000000000CB
S11301B040000000000000000010000000000000EB
S11301C00000000000000000080000000000000023
S11301D00000001000000000000000000002000009
S11301E00080000000000000000000020000000089
S11301F000000000000000000000400000000000BB
S113020000000000000020000000000000000000CA
S11302100400040000000000000000004000000092
S113022000000000000000000000000000000002C8
S113023000000000000000000010000000000000AA
S113024000000080000000800000000000000000AA
S1130250004000000000000000000000400000001A
S1130260000000000000200000000000000000006A
S11302700100000000000000040000000000000075
S11302800000000400000000000000000000000462
S113029000000000000000000080000000000000DA
S11302A000000000004000000000200000000000EA
S11302B0000000200000000000000000000000001A
S11302C00000040000000000000000000020000006
S11302D000000000000000040000004000000000D6
S11302E00000000000040000000000000000000006
S11302F000000000200000000000000000000000DA
S113030010000000000000000000080002000000CF
S11303100000000000008000000000000000000059
S113032000000000000000000004000000000000C5
S113033000000008000000000000000001000000B0
S113034000000000000000000000000000000000A9
S11303500000000000000000000000000000000099
S11303600000000000000000000000000000000089
S11303700000000000000000000000000000000079
S11303800000000000000000000000000000000069
S11303900000000000000000000000000000000059
S11303A00000000000000000000000000000000049
S11303B0000000000000FFFFFF01FFFFFF01FFFF3F
S11303C0FF01FFFFFF01FFFFFF01FFFFFF01FFFF31
S11303D0FF01FFFFFF01FFFFFF01FFFFFF01FFFF21
S11303E0FF01FFFFFF01FFFFFF01FFFFFF01FFFF11
S11303F0FF01FFFFFF010000000000000000FFFFFD
S1130400FF010000000000000000FFFFFF010000EA
S1130410000000000000FFFFFF01000000000000DA
S11304200000FFFFFF0100000000000000000000CA
S11304300000FFFFFF010000000000000000FFFFBC
S1130440FF010000000000000000FFFFFF010000AA
S1130450000000000000FFFFFF010000000000009A
S11304600000FFFFFF01000000000000000000008A
S11304700000FFFFFF010000000000000000FFFF7C
S1130480FF010000000000000000FFFFFF0100006A
S1130490000000000000FFFFFF010000000000005A
S11304A00000FFFFFF010400000000000000000046
S11304B00000040000000000000000000000040030
S11304C00000000000000000000004000000000024
S11304D00000000000000400000000000000000014
S11304E00000000400000000000000000000000400
S11304F000000000000000000000000400000000F4
S113050000000000000000040000000000000000E3
S11305100000000400000000000000000000004093
S11305200000000000000000000000400000000087
S11305300000000000000040000000000000000077
S11305400000004000000000000000000000004027
S11305500000000000000000000000004000000057
S11305600000000000000000400000000000000047
S11305700000000040000000000000000000000037
S113058040000000000000000000000040000000E7
S113059000000000000080000000000000000000D7
S11305A00000800000000000000000000000800047
S11305B000000000000000000000800000000000B7
S11305C000000000000080000000000000000000A7
S11305D00000000800000000000000000000000807
S11305E000000000000000000000000800000000FF
S11305F000000000000000080000000000000000EF
S113060000000008000000000000000000000010CE
S113061000000000000000000000001000000000C6
S113062000000000000000100000000000000000B6
S11306300000001000000000000000000000001096
S11306400000000000000000000000200000000086
S11306500000000000000020000000000000000076
S11306600000002000000000000000000000002046
S11306700000000000000000000000200000000056
S11306800000000000000000020000000000000064
S11306900000000002000000000000000000000054
S11306A00200000000000000000000000200000042
S11306B00000000000000000020000000000000034
S11306C00000007C0000007C0000007C0000007C36
S11306D00000007C0000007C0000007C0000007C26
S11306E00000007C0000007C0000007C0000007C16
S11306F00000007C0000007C0000007C0000101161
S11307001100000000001011110010111100000070
S11307100000101111001011110000000000101150
S1130720110010111100000000001011110010112F
S113073011000000000010111100000000008410DE
S11307404200841042000000000084104200841023
S113075042000000000084104200841042000000A7
S11307600000841042008410420000000000841045
S1130770420084104200000000000000000041100C
S1130780040100000000000000004110040100000A
S113079000000000000041100401000000000000FF
S11307A0000041100401000000000000000041109E
S11307B00401C0390700C0390700C0390700C03937
S11307C00700C0390700C0390700C0390700C03925
S11307D00700C0390700C0390700C0390700C03915
S11307E00700C0390700C0390700C03907003FC6F9
S11307F000003FC600003FC600003FC600003FC6E1
S113080000003FC600003FC600003FC600003FC6D0
S113081000003FC600003FC600003FC600003FC6C0
S113082000003FC600003FC600001F00000000009B
S11308300000000000001F00000000000000000095
S113084000001F00000000000000000000001F0066
S1130850000000000000000000001F000000000075
S113086000000000000000000000E00300000000A1
S1130870000000000000E003000000000000000091
S11308800000E00300000000000000000000E0039E
S113089000000000000000000000E0030000000071
S11308A000000000000000000000007C00000000C8
S11308B0000000000000007C0000000000000000B8
S11308C00000007C00000000000000000000007C2C
S11308D000000000000000000000007C0000008018
S11308E00F0000800F000000000000800F00008057
S11308F00F000000000000800F0000800F000000C7
S1130900000000800F0000800F0000000000008045
S11309100F0000800F000000000000000000000035
S1130920F0010000F001000000000000F0010000F0
S1130930F001000000000000F0010000F0010000E0
S113094000000000F0010000F001000000000000C1
S1130950F0010000F0011F000000000000001F0073
S11309600000110000000000000011000000110050
S11309700000000000001100000011000000000051
S11309800000110000001F000000000000001F0014
S11309900000E003000000000000E003000020026B
S11309A000000000000020020000200200000000FF
S11309B000002002000020020000000000002002CD
S11309C00000E003000000000000E0030000007CE1
S11309D0000000000000007C000040040000000053
S11309E00000400400004004000000000000400437
S11309F00000400400000000000040040000007CEF
S1130A00000000000000007C000000800F000000D7
S1130A10000000800F000088000000000000008833
S1130A20000000880000000000000088000000882A
S1130A300000000000000088000000800F0000009B
S1130A40000000800F000000F00100000000000022
S1130A50F00100001001000000000000100100007F
S1130A60100100000000000010010000100100004F
S1130A700000000010010000F00100000000000070
S1130A80F0011F000000000000001F000000010032
S1130A90000000000000010000001F000000000032
S1130AA000001F0000001000000000000000100003
S1130AB000001F000000000000001F000000E00311
S1130AC0000000000000E00300002000000000001F
S1130AD0000020000000E003000000000000E0032C
S1130AE00000000200000000000000020000E0031B
S1130AF0000000000000E0030000007C0000000093
S1130B000000007C0000000400000000000000045D
S1130B100000007C000000000000007C0000004495
S1130B2000000000000000440000007C0000000001
S1130B300000007C000000800F0000000000008026
S1130B400F00008000000000000000800000008012
S1130B500F000000000000800F00000008000000EB
S1130B6000000000080000800F000000000000806A
S1130B700F000000F001000000000000F001000080
S1130B80100000000000000010000000F001000050
S1130B9000000000F001000000010000000000005F
S1130BA010010000F001000000000000F00111003D
S1130BB0000000000000110000001100000000000F
S1130BC000001100000011000000000000001100EE
S1130BD000001100000000000000110000001F00D0
S1130BE00000000000001F000000200200000000C0
S1130BF0000020020000200200000000000020028B
S1130C00000020020000000000002002000020027A
S1130C1000000000000020020000E00300000000CB
S1130C200000E00300000044000000000000004455
S1130C3000000044000000000000004400000044E4
S1130C400000000000000044000000440000000018
S1130C50000000440000007C000000000000007C54
S1130C6000000080080000000000008008000080F0
S1130C700800000000000080080000800800000058
S1130C8000000080080000800800000000000080D0
S1130C90080000800F000000000000800F00FFFF2C
S1130CA0FF01FFFFFF01FFFFFF01FFFFFF01FFFF48
S1130CB0FF01FFFFFF01FFFFFF01FFFFFF01FFFF38
S1130CC0FF01FFFFFF01FFFFFF01FFFFFF01FFFF28
S1130CD0FF01FFFFFF01FFFFFF01FFFFFF01000016
S1130CE0000000000000FFFFFF0100000000000002
S1130CF00000FFFFFF010000000000000000FFFFF4
S1130D00FF010000000000000000FFFFFF010000E1
S1130D1000000000000000000000FFFFFF010000D1
S1130D20000000000000FFFFFF01000000000000C1
S1130D300000FFFFFF010000000000000000FFFFB3
S1130D40FF010000000000000000FFFFFF010000A1
S1130D5000000000000000000000FFFFFF01000091
S1130D60000000000000FFFFFF0100000000000081
S1130D700000FFFFFF010000000000000000FFFF73
S1130D80FF010000000000000000FFFFFF01FFFF63
S1130D90FF01FFFFFF01FFFFFF01FFFFFF01FFFF57
S1130DA0FF01FFFFFF01FFFFFF01FFFFFF01FFFF47
S1130DB0FF01FFFFFF01FFFFFF01FFFFFF01FFFF37
S1130DC0FF01FFFFFF01FFFFFF0100000000000023
S1130DD0000000000000000000000000000000000F
S1130DE000000000000000000000000000000000FF
S1130DF000000000000000000000000000000000EF
S1130E0000000000000001000000000000000000DD
S1130E1000000000000000000000000000000000CE
S1130E2000000000000000000000000000000000BE
S1130E3000000000000000000000000000000000AE
S1130E40000002000000000000000000000000009C
S1130E50000000000000000000000000000000008E
S1130E60000000000000000000000000000000007E
S1130E70000000000000000000000000000004006A
S1130E80000000000000000000000000000000005E
S1130E90000000000000000000000000000000004E
S1130EA0000000000000000000000000000000003E
S1130EB00000000000000000000008000000000026
S1130EC0000000000000000000000000000000001E
S1130ED0000000000000000000000000000000000E
S1130EE000000000000000000000000000000000FE
S1130EF000000000000010000000000000000000DE
S1130F0000000000000000000000000000000000DD
S1130F1000000000000000000000000000000000CD
S1130F2000000000000000000000000000000000BD
S1130F3000000400000000000000000000000400A5
S1130F400000000000000000000004000000000099
S1130F500000000000000400000000000000000089
S1130F600000040000000000000000000000000475
S1130F700000000000000000000000040000000069
S1130F800000000000000004000000000000000059
S1130F900000000400000000000000000000000445
S1130FA000000000000000000000004000000000FD
S1130FB000000000000000400000000000000000ED
S1130FC0000000400000000000000000000000409D
S1130FD000000000000000000000004000000000CD
S1130FE000000000000000004000000000000000BD
S1130FF000000000400000000000000000000000AD
S1131000400000000000000000000000400000005C
S1131010000000000000000040000000000000008C
S113102000000000000000000000000000000000BC
S113103000000000000000000000000000000000AC
S1131040000000000000000000000000000000009C
S11310500000000000000000000000000000112457
S11310601FBECEEFD2E0DEBFCDBF11E0A0E0B1E005
S1131070EEEBF1E202C005900D92A036B107D9F76C
S113108011E0A0E6B1E001C01D92A539B107E1F776
S11310900E94D70E0C94DD100C9400008230F1F005
S11310A0833040F08330F9F0843099F085B1806763
S11310B085B90895882339F08130C1F785B18F78D7
S11310C085B92C9A089585B18F7885B985B185B98C
S11310D0089585B18F7885B92E9A089585B18F7852
S11310E085B92D9A089585B18F7885B985B18063C6
S11310F085B908951F93182F0E944E08812F90E000
S113110044E09C01220F331F220F331F280F391F85
S1131110E42FF0E0D901AE0FBF1FAA0FBB1FA05AE6
S1131120BE4F8C918EBD0DB407FEFDCFD901AE0F1D
S1131130BF1FAA0FBB1FA05ABE4F11968C911197C7
S11311408EBD0DB407FEFDCFE20FF31FEE0FFF1FA0
S1131150E05AFE4F11821082442311F04150D8CF3F
S1131160169A16988FEF90E7A2E081509040A04025
S1131170E1F700C000001F910895DF92EF92FF9203
S11311800F931F93CF93DF937A018B0140E550E0D7
S113119020E030E090E0EC01CC0FDD1FCC0FDD1F30
S11311A0C80FD91FCC0FDD1FC05ADE4FD801C701AD
S11311B0022E04C0B695A795979587950A94D2F701
S11311C080FF12C0DE01CA0175E0D72EFC016591D3
S11311D07491ED91FC911197E62BF72BED93FD9310
S11311E0DA940296DD2091F72F5F3F4F465F5F4F01
S11311F029313105D9F6DF91CF911F910F91FF90DD
S1131200EF90DF900895DF92EF92FF920F931F9378
S1131210CF93DF937A018B0144E452E020E030E085
S113122090E0EC01CC0FDD1FCC0FDD1FC80FD91FE0
S1131230CC0FDD1FC05ADE4FD801C701022E04C0F7
S1131240B695A795979587950A94D2F780FF12C013
S1131250DE01CA0165E0D62EFC0165917491ED9121
S1131260FC911197E62BF72BED93FD93DA940296FC
S1131270DD2091F72F5F3F4F465F5F4F29313105E6
S1131280D9F6DF91CF911F910F91FF90EF90DF90EE
S11312900895DF92EF92FF920F931F93CF93DF9302
S11312A07A018B014AE451E020E030E090E0EC0167
S11312B0CC0FDD1FCC0FDD1FC80FD91FCC0FDD1FD6
S11312C0C05ADE4FD801C701022E04C0B695A795B7
S11312D0979587950A94D2F780FF12C0DE01CA0160
S11312E0F5E0DF2EFC0165917491ED91FC9111976D
S11312F0E62BF72BED93FD93DA940296DD2091F71C
S11313002F5F3F4F465F5F4F29313105D9F6DF919B
S1131310CF911F910F91FF90EF90DF9008956F92FE
S11313207F928F929F92BF92CF92DF92EF92FF9221
S11313300F931F93B82E380149010E94BD088B2DCD
S1131340B401A3010E9403098B2DB701A6010E94D9
S113135049091F910F91FF90EF90DF90CF90BF90BC
S11313609F908F907F906F90089585B18F7885B905
S113137085B185B908958F929F92AF92BF92CF9213
S1131380DF92EF92FF920F931F93CF93DF93862FF9
S113139090E0EC01C295D295D07FDC27C07FDC279A
S11313A0C81BD90BFE01EE0FFF1FEE0FFF1FE658FF
S11313B0FC4F0591159125913491FE01EE0FFF1F0D
S11313C0EE0FFF1FE258FC4FC590D590E590F490C6
S11313D0FE01EE0FFF1FEE0FFF1FEE57FC4F85902F
S11313E09590A590B49080E0A801B9018601970179
S11313F0640175010E948F09FE01EE0FFF1FEE0FBD
S1131400FF1FEA57FC4F0591159125913491FE0178
S1131410EE0FFF1FEE0FFF1FE657FC4FC590D59050
S1131420E590F490FE01EE0FFF1FEE0FFF1FE25751
S1131430FC4F85909590A590B49081E0A801B901E6
S113144086019701640175010E948F09FE01EE0F68
S1131450FF1FEE0FFF1FEE56FC4F059115912591CE
S11314603491FE01EE0FFF1FEE0FFF1FEA56FC4FF3
S1131470C590D590E590F490FE01EE0FFF1FEE0F9E
S1131480FF1FE656FC4F85909590A590B49082E09E
S1131490A801B90186019701640175010E948F09B1
S11314A0FE01EE0FFF1FEE0FFF1FE256FC4F0591EA
S11314B0159125913491FE01EE0FFF1FEE0FFF1FD2
S11314C0EE55FC4FC590D590E590F490FE01EE0FDB
S11314D0FF1FEE0FFF1FEA55FC4F85909590A590D6
S11314E0B49083E0A801B9018601970164017501F4
S11314F00E948F09FE01EE0FFF1FEE0FFF1FE6553E
S1131500FC4F0591159125913491FE01EE0FFF1FBB
S1131510EE0FFF1FE255FC4FC590D590E590F49077
S1131520FE01EE0FFF1FEE0FFF1FEE54FC4F8590E0
S11315309590A590B49084E0A801B9018601970123
S1131540640175010E948F09C0E0D0E08C2F0E94D5
S11315504E0824E0CE01880F991F880F991F8C0F25
S11315609D1FE22FF0E0DC01AE0FBF1FAA0FBB1FCF
S1131570A05ABE4F3C913EBD0DB407FEFDCFDC0129
S1131580AE0FBF1FAA0FBB1FA05ABE4F11963C91AE
S113159011973EBD0DB407FEFDCFE80FF91FEE0F06
S11315A0FF1FE05AFE4F11821082222311F02150B6
S11315B0D8CF169A1698C430D10569F4DF91CF912B
S11315C01F910F91FF90EF90DF90CF90BF90AF905D
S11315D09F908F9008958FE99FE00197F1F700C0E5
S11315E000002196C530D10509F0B0CFE7CFCF92E6
S11315F0DF92EF92FF920F931F93CF93DF93EC014F
S1131600598140E02A81922F992780E0482B592B59
S1131610888190E0482B592B662757FD6095762FDB
S1131620088910E0000F111F000F111F000F111F78
S11316308F8590E08770082B192B2989922F990F99
S1131640990F990F80E0082B192B222717FD20955D
S1131650322FC8A0DD240024D694C7940794D694CE
S1131660C7940794DC2CC02C8F8D90E08F73C82A0C
S1131670D92AE9A19E2F9295990F990F907C80E029
S1131680C82AD92AEE24D7FCE094FE2C0E948F09A4
S11316904C8150E05695542F4427579547958B819C
S11316A090E08F77482B592B2D81922F979599276E
S11316B0979580E0482B592B662757FD6095762F28
S11316C00B8910E0000F111F000F111F8A8990E091
S11316D08370082B192B2C89922F990F990F80E076
S11316E0082B192B222717FD2095322FCBA0DD24A0
S11316F0CC0CDD1CC294D29480EFD822DC24C82206
S1131700DC248AA190E08F71C82AD92AECA19E2FEB
S11317109295990F907E80E0C82AD92AEE24D7FCAE
S1131720E094FE2C81E00E948F094F8150E0002458
S1131730569547950794569547950794542F402DF1
S11317408E8190E08F73482B592B2885922F929588
S1131750990F990F907C80E0482B592B662757FDF1
S11317606095762F0E8910E0000F111F8D8990E08F
S11317708170082B192B2F89922F990F80E0082B49
S1131780192B288D922F992780E0082B192B2227BB
S113179017FD2095322FCEA0DD24C294D294A0EF61
S11317A0DA22DC24CA22DC248DA190E08F70C82ABE
S11317B0D92AEFA19E2F9295907F80E0C82AD92A3A
S11317C0EE24D7FCE094FE2C82E00E948F094A8527
S11317D050E0440F551F42955295507F5427407F47
S11317E05427898590E08F71482B592B2B85922F94
S11317F09295990F907E80E0482B592B662757FDD0
S11318006095762F1A8D00E02B8D922F992780E01A
S1131810082B192B898D90E0082B192B222717FDF3
S11318202095322FC9A4DD24CC0CDD1CCC0CDD1C8E
S1131830CC0CDD1C88A590E08770C82AD92AEAA5BB
S11318409E2F990F990F990F80E0C82AD92AEE2468
S1131850D7FCE094FE2C83E00E948F094D8550E074
S113186042955295507F5427407F54278C8590E0B1
S11318708F70482B592B2E85922F9295907F80E064
S1131880482B592B662757FD6095762F0D8D10E058
S11318901695102F0027179507958C8D90E08F775C
S11318A0082B192B2E8D922F97959927979580E0C9
S11318B0082B192B222717FD2095322FCCA4DD24C9
S11318C0CC0CDD1CCC0CDD1C8BA590E08370C82AED
S11318D0D92AEDA59E2F990F990F80E0C82AD92AFD
S11318E0EE24D7FCE094FE2C84E00E948F09DF9163
S11318F0CF911F910F91FF90EF90DF90CF900895BB
S1131900CF92DF92EF92FF920F931F93CF93DF93C7
S1131910EC01598140E02A81922F992780E0482BDD
S1131920592B888190E0482B592B662757FD6095E9
S1131930762F088910E0000F111F000F111F000FF0
S1131940111F8F8590E0807E082B192B2989922FF7
S1131950990F990F990F80E0082B192B222717FD57
S11319602095322FC8A0DD240024D694C794079470
S1131970D694C7940794DC2CC02C8F8D90E08C7F78
S1131980C82AD92AE9A19E2F9295990F990F907C84
S113199080E0C82AD92AEE24D7FCE094FE2C0E94C9
S11319A08F094C8150E05695542F442757954795FD
S11319B08B8190E08E7F482B592B2D81922F979508
S11319C09927979580E0482B592B662757FD6095FA
S11319D0762F0B8910E0000F111F000F111F8A8949
S11319E090E0807C082B192B2C89922F990F990F4A
S11319F080E0082B192B222717FD2095322FCBA02E
S1131A00DD24CC0CDD1CC294D294E0EFDE22DC2475
S1131A10CE22DC248AA190E0887FC82AD92AECA1AE
S1131A209E2F9295990F907E80E0C82AD92AEE24A1
S1131A30D7FCE094FE2C81E00E948F094F8150E096
S1131A400024569547950794569547950794542F27
S1131A50402D8E8190E08C7F482B592B2885922F26
S1131A609295990F990F907C80E0482B592B66270B
S1131A7057FD6095762F0E8910E0000F111F8D8998
S1131A8090E08078082B192B2F89922F990F80E0F2
S1131A90082B192B288D922F992780E0082B192BBE
S1131AA0222717FD2095322FCEA0DD24C294D29494
S1131AB080EFD822DC24C822DC248DA190E0807F32
S1131AC0C82AD92AEFA19E2F9295907F80E0C82A38
S1131AD0D92AEE24D7FCE094FE2C82E00E948F09E0
S1131AE04A8550E0440F551F42955295507F542724
S1131AF0407F5427898590E0887F482B592B2B857C
S1131B00922F9295990F907E80E0482B592B66274F
S1131B1057FD6095762F1A8D00E02B8D922F992713
S1131B2080E0082B192B898D90E0082B192B222794
S1131B3017FD2095322FC9A4DD24CC0CDD1CCC0C60
S1131B40DD1CCC0CDD1C88A590E0807EC82AD92A37
S1131B50EAA59E2F990F990F990F80E0C82AD92AD8
S1131B60EE24D7FCE094FE2C83E00E948F094D857F
S1131B7050E042955295507F5427407F54278C85DE
S1131B8090E0807F482B592B2E85922F9295907F41
S1131B9080E0482B592B662757FD6095762F0D8DD5
S1131BA010E01695102F0027179507958C8D90E05F
S1131BB08E7F082B192B2E8D922F97959927979509
S1131BC080E0082B192B222717FD2095322FCCA457
S1131BD0DD24CC0CDD1CCC0CDD1C8BA590E0807CC2
S1131BE0C82AD92AEDA59E2F990F990F80E0C82AFB
S1131BF0D92AEE24D7FCE094FE2C84E00E948F09BD
S1131C00C0E0D0E08C2F0E944E0824E0CE01880F63
S1131C10991F880F991F8C0F9D1FE22FF0E0DC01A4
S1131C20AE0FBF1FAA0FBB1FA05ABE4F3C913EBDB3
S1131C300DB407FEFDCFDC01AE0FBF1FAA0FBB1F03
S1131C40A05ABE4F11963C9111973EBD0DB407FEAC
S1131C50FDCFE80FF91FEE0FFF1FE05AFE4F118270
S1131C601082222311F02150D8CF169A1698C4302E
S1131C70D10549F4DF91CF911F910F91FF90EF901F
S1131C80DF90CF9008958FE99FE00197F1F700C0AE
S1131C9000002196C530D10509F0B4CFEBCFEF9207
S1131CA0FF920F931F93DF93CF930F92CDB7DEB7BD
S1131CB07C0100E010E00AC093E0083E1907C1F07F
S1131CC08AE18A95F1F700C00F5F1F4FC70160E2F8
S1131CD00E948A10882381F783E0083E180740F4A5
S1131CE00F90CF91DF911F910F91FF90EF90089586
S1131CF0198280E0BE016F5F7F4F41E00E9449106E
S1131D0069816D7F80E00E94C40F87E293E20197AE
S1131D10F1F700C000006981626080E00E94C40F96
S1131D2087E293E20197F1F700C000000F90CF9192
S1131D30DF911F910F91FF90EF900895CF93DF9360
S1131D40EB0106C080919201609193010E94BB094E
S1131D500E94B80F8823B1F3CE010E94D80F81E00E
S1131D60DF91CF910895E62FF0E03197E80FF91F46
S1131D702081322F3F5F30832F512B3510F020E22A
S1131D8020830E944F0E08950E94A60F8FE798E3C8
S1131D90A1E081509040A040E1F700C00000089508
S1131DA00E943910089583B180958F7008958F92A1
S1131DB09F92AF92BF92CF92DF92EF92FF920F93D6
S1131DC01F93DF93CF93CDB7DEB7C056D0400FB685
S1131DD0F894DEBF0FBECDBF84B1806784B985B1EE
S1131DE08F6085B90E94C40E5E010894A11CB11CC9
S1131DF0D501E0E4F1E080E201900D928150E1F739
S1131E0091E2892E912C8C0E9D1ED401E0E0F1E02C
S1131E1080E401900D928150E1F778940E9439108A
S1131E2080E041E050E060E070E000E010E0980104
S1131E30CC24DD2476010E948F0981E041E050E04A
S1131E4060E070E000E010E098010E948F0982E0F9
S1131E5041E050E060E070E000E010E098010E9492
S1131E608F0983E041E050E060E070E000E010E0C2
S1131E7098010E948F0984E041E050E060E070E046
S1131E8000E010E098010E948F0911E1C401B5013E
S1131E9040E20E949E0E8130C9F789818130B1F7FA
S1131EA09B8190939301809392011A8383B18095CF
S1131EB08F708B838C81813049F7C50160E20E9469
S1131EC04F0EE4CF81B1806781B98CB580658CBD3C
S1131ED08DB581608DBD08958EBD0DB407FEFDCF17
S1131EE08EB50895662361F0E82FF92F80E0919173
S1131EF09EBD0DB407FEFDCF9EB58F5F8617B8F368
S1131F0008958FEF8EBD0DB407FEFDCF8EB50895F5
S1131F10E82FF92F80E21EBC0DB407FEFDCF9EB55D
S1131F2091938150C1F70895442379F0A82FB92FD4
S1131F30E62FF72F80E09D919EBD0DB407FEFDCFE7
S1131F409EB591938F5F8417B0F3089581B1836038
S1131F5081B91198109AE8E6F0E08081816080836D
S1131F60EBE6F0E08081886080830E94620F089530
S1131F7080919401882311F080E0089510980E94C4
S1131F80810F109A80740895DF93CF930F92CDB789
S1131F90DEB710988F71806269830E946C0F69812B
S1131FA0862F0E946C0F109A0F90CF91DF910895A5
S1131FB0CF93DF93EC01109881E60E946C0FCE0161
S1131FC0BE0140E20E94940F109A87E060E40E94F0
S1131FD0C40FDF91CF91089580919401882309F46F
S1131FE00895109880E00E946C0F109A119880E078
S1131FF06BE40E94C40F119A1092940187E060E38D
S11320000E94C40F08951F920F920FB60F921124CD
S11320102F933F934F935F936F937F938F939F93EC
S1132020AF93BF93EF93FF9380919401882381F042
S113203010980E94810F109A119880E06BE40E941E
S1132040C40F119A1092940187E060E30E94C40FB8
S1132050FF91EF91BF91AF919F918F917F916F917C
S11320605F914F913F912F910F900FBE0F901F9052
S1132070189585E066E40E94C40F81E160E20E9445
S1132080C40F1092940180E06BE40E94C40F119A73
S113209008950F931F93DF93CF930F92CDB7DEB7BD
S11320A08B0110988F7149830E946C0FC801B8018D
S11320B049810E94940F109A0F90CF91DF911F9144
S11320C00F9108950F931F93DF93CF930F92CDB782
S11320D0DEB78B0110988F71806249830E946C0F68
S11320E0C8014981642F0E94720F109A0F90CF91FA
S11320F0DF911F910F910895BC0180E145E00E949A
S113210062100895BC0111988AE045E00E946210B3
S1132110119A0895EF92FF920F931F93DF93CF9339
S11321200F92CDB7DEB78C01F62EEFB6F894198274
S113213087E0BE016F5F7F4F41E00E9449101B9909
S113214015C0898185FD0EC0EFBE8091940188235E
S1132150A1F08FEF0F90CF91DF911F910F91FF901E
S1132160EF90089580919401882371F30E94EC0FFD
S1132170EFBE80919401882361F7119881E08093E8
S1132180940180E06AE40E94C40F109881EE0E94DA
S11321906C0F109A109880EA0E946C0FC8016F2D82
S11321A00E94720F109A119A80E00F90CF91DF91E4
S11121B01F910F91FF90EF900895F894FFCFC8
S11321BE6162636465666768696A6B6C6D6E6F7085
S11321CE7172737475767778797A414243444546D1
S11321DE6162636465666768696A6B6C6D6E6F7065
S11321EE7172737475767778797A414243444546B1
S11321FE6162636465666768696A6B6C6D6E6F7045
S113220E7172737475767778797A41424344454690
S9030000FC
