:100000000C94C9040C94E6040C94E6040C94E70FD9
:100010000C94E6040C94E6040C94E6040C94E604B8
:100020000C94E6040C94E6040C94E6040C94E604A8
:100030000C94E6040C94E6040C94E6040C94E60498
:100040000C94E6040C94E6040C94E6040C94E60488
:10005000000002000000000000000000001000008E
:10006000000000000000000000010000000000008F
:100070000000080000000000000000000400000074
:10008000000000001000000000000000000000015F
:100090000000000000000000000000100000000050
:1000A0000000000000200000000000000000000030
:1000B00001000000000080000000000000000008B7
:1000C0000000000000000000000000000000100020
:1000D0000000000000000000000800000000000018
:1000E000000000010000010000000000000000000E
:1000F00000010000000000000000000000000000FF
:10010000800000000000000000000000400000002F
:1001100000000000000002000800000000000000D5
:1001200000002000000000000000000000000000AF
:10013000000000000001000000000000000000209E
:10014000000000000000000000400000010000006E
:10015000000000000000002000000000000000007F
:1001600000008000000000000000000010000000FF
:100170000000000000000200000000000000080075
:10018000000000000000000000020000000000006D
:100190000000000000080000000000000000004017
:1001A00000000000000000000000008000000000CF
:1001B00040000000000000000010000000000000EF
:1001C0000000000000000000080000000000000027
:1001D000000000100000000000000000000200000D
:1001E000008000000000000000000002000000008D
:1001F00000000000000000000000400000000000BF
:1002000000000000000020000000000000000000CE
:100210000400040000000000000000004000000096
:1002200000000000000000000000000000000002CC
:1002300000000000000000000010000000000000AE
:1002400000000080000000800000000000000000AE
:10025000004000000000000000000000400000001E
:10026000000000000000200000000000000000006E
:100270000100000000000000040000000000000079
:100280000000000400000000000000000000000466
:1002900000000000000000000080000000000000DE
:1002A00000000000004000000000200000000000EE
:1002B000000000200000000000000000000000001E
:1002C000000004000000000000000000002000000A
:1002D00000000000000000040000004000000000DA
:1002E000000000000004000000000000000000000A
:1002F00000000000200000000000000000000000DE
:1003000010000000000000000000080002000000D3
:10031000000000000000800000000000000000005D
:1003200000000000000000000004000000000000C9
:1003300000000008000000000000000001000000B4
:1003400000000000000000000000000000000000AD
:10035000000000000000000000000000000000009D
:10036000000000000000000000000000000000008D
:10037000000000000000000000000000000000007D
:10038000000000000000000000000000000000006D
:10039000000000000000000000000000000000005D
:1003A000000000000000000000000000000000004D
:1003B000000000000000FFFFFF01FFFFFF01FFFF43
:1003C000FF01FFFFFF01FFFFFF01FFFFFF01FFFF35
:1003D000FF01FFFFFF01FFFFFF01FFFFFF01FFFF25
:1003E000FF01FFFFFF01FFFFFF01FFFFFF01FFFF15
:1003F000FF01FFFFFF010000000000000000FFFF01
:10040000FF010000000000000000FFFFFF010000EE
:10041000000000000000FFFFFF01000000000000DE
:100420000000FFFFFF0100000000000000000000CE
:100430000000FFFFFF010000000000000000FFFFC0
:10044000FF010000000000000000FFFFFF010000AE
:10045000000000000000FFFFFF010000000000009E
:100460000000FFFFFF01000000000000000000008E
:100470000000FFFFFF010000000000000000FFFF80
:10048000FF010000000000000000FFFFFF0100006E
:10049000000000000000FFFFFF010000000000005E
:1004A0000000FFFFFF01040000000000000000004A
:1004B0000000040000000000000000000000040034
:1004C0000000000000000000000004000000000028
:1004D0000000000000000400000000000000000018
:1004E0000000000400000000000000000000000404
:1004F00000000000000000000000000400000000F8
:1005000000000000000000040000000000000000E7
:100510000000000400000000000000000000004097
:10052000000000000000000000000040000000008B
:10053000000000000000004000000000000000007B
:10054000000000400000000000000000000000402B
:10055000000000000000000000000000400000005B
:10056000000000000000000040000000000000004B
:10057000000000004000000000000000000000003B
:1005800040000000000000000000000040000000EB
:10059000000000000000000000000000000000005B
:1005A000000000000000000000000000000000004B
:1005B000000000000000000000000000000000003B
:1005C000000000000000000000000000000000002B
:1005D0000000FFFFFF01FFFFFF01FFFFFF01FFFF23
:1005E000FF01FFFFFF01FFFFFF01FFFFFF01FFFF13
:1005F000FF01FFFFFF01FFFFFF01FFFFFF01FFFF03
:10060000FF01FFFFFF01FFFFFF01FFFFFF01FFFFF2
:10061000FF010000000000000000FFFFFF010000DC
:10062000000000000000FFFFFF01000000000000CC
:100630000000FFFFFF010000000000000000FFFFBE
:10064000FF01000000000000000000000000FFFFAC
:10065000FF010000000000000000FFFFFF0100009C
:10066000000000000000FFFFFF010000000000008C
:100670000000FFFFFF010000000000000000FFFF7E
:10068000FF01000000000000000000000000FFFF6C
:10069000FF010000000000000000FFFFFF0100005C
:1006A000000000000000FFFFFF010000000000004C
:1006B0000000FFFFFF010000000000000000FFFF3E
:1006C000FF01FFFFFF01FFFFFF01FFFFFF01FFFF32
:1006D000FF01FFFFFF01FFFFFF01FFFFFF01FFFF22
:1006E000FF01FFFFFF01FFFFFF01FFFFFF01FFFF12
:1006F000FF01FFFFFF01FFFFFF01FFFFFF01000000
:1007000000000000000000000000000000000000E9
:1007100000000000000000000000000000000000D9
:1007200000000000000000000000000000000000C9
:1007300000000000000000000000010000000000B8
:1007400000000000000000000000000000000000A9
:100750000000000000000000000000000000000099
:100760000000000000000000000000000000000089
:100770000000000000000200000000000000000077
:100780000000000000000000000000000000000069
:100790000000000000000000000000000000000059
:1007A0000000000000000000000000000000000049
:1007B0000000040000000000000000000000000035
:1007C0000000000000000000000000000000000029
:1007D0000000000000000000000000000000000019
:1007E0000000000000000000000000000000080001
:1007F00000000000000000000000000000000000F9
:1008000000000000000000000000000000000000E8
:1008100000000000000000000000000000000000D8
:1008200000000000000000000000100000000000B8
:1008300000000000000000000000000000000000B8
:1008400000000000000000000000000000000000A8
:100850000000000000000000000000000000000098
:100860000000000000000400000000000000000084
:100870000000040000000000000000000000040070
:100880000000000000000000000004000000000064
:100890000000000000000400000000000000000054
:1008A0000000000400000000000000000000000440
:1008B0000000000000000000000000040000000034
:1008C0000000000000000004000000000000000024
:1008D00000000004000000000000000000000040D4
:1008E00000000000000000000000004000000000C8
:1008F00000000000000000400000000000000000B8
:100900000000004000000000000000000000004067
:100910000000000000000000000000004000000097
:100920000000000000000000400000000000000087
:100930000000000040000000000000000000000077
:100940004000000000000000000000004000000027
:100950000000000000000000000000000000000097
:100960000000000000000000000000000000000087
:100970000000000000000000000000000000000077
:100980000000000000000000000000000000000067
:10099000000011241FBECEEFD2E0DEBFCDBF11E0BC
:1009A000A0E0B1E0EAEAF1E202C005900D92A036C3
:1009B000B107D9F711E0A0E6B1E001C01D92A53959
:1009C000B107E1F70E945F0E0C94D3100C94000065
:1009D0008230F1F0833040F08330F9F0843099F0C8
:1009E00085B1806785B90895882339F08130C1F7D2
:1009F00085B18F7885B92C9A089585B18F7885B99E
:100A000085B185B9089585B18F7885B92E9A0895F5
:100A100085B18F7885B92D9A089585B18F7885B97C
:100A200085B1806385B908951F93182F0E94E8044B
:100A3000812F90E044E09C01220F331F220F331FCF
:100A4000280F391FE42FF0E0D901AE0FBF1FAA0F06
:100A5000BB1FA05ABE4F8C918EBD0DB407FEFDCFBB
:100A6000D901AE0FBF1FAA0FBB1FA05ABE4F1196D0
:100A70008C9111978EBD0DB407FEFDCFE20FF31FD1
:100A8000EE0FFF1FE05AFE4F11821082442311F037
:100A90004150D8CF169A16988FEF90E7A2E0815078
:100AA0009040A040E1F700C000001F910895DF9240
:100AB000EF92FF920F931F93CF93DF937A018B01F5
:100AC00040E550E020E030E090E0EC01CC0FDD1F8D
:100AD000CC0FDD1FC80FD91FCC0FDD1FC05ADE4F52
:100AE000D801C701022E04C0B695A79597958795A2
:100AF0000A94D2F780FF12C0DE01CA0175E0D72E3A
:100B0000FC0165917491ED91FC911197E62BF72B07
:100B1000ED93FD93DA940296DD2091F72F5F3F4F1E
:100B2000465F5F4F29313105D9F6DF91CF911F9193
:100B30000F91FF90EF90DF900895DF92EF92FF9278
:100B40000F931F93CF93DF937A018B0144E452E01C
:100B500020E030E090E0EC01CC0FDD1FCC0FDD1F7A
:100B6000C80FD91FCC0FDD1FC05ADE4FD801C701F7
:100B7000022E04C0B695A795979587950A94D2F74B
:100B800080FF12C0DE01CA0165E0D62EFC0165912E
:100B90007491ED91FC911197E62BF72BED93FD935A
:100BA000DA940296DD2091F72F5F3F4F465F5F4F4B
:100BB00029313105D9F6DF91CF911F910F91FF9027
:100BC000EF90DF900895DF92EF92FF920F931F93C3
:100BD000CF93DF937A018B014AE451E020E030E0CB
:100BE00090E0EC01CC0FDD1FCC0FDD1FC80FD91F2B
:100BF000CC0FDD1FC05ADE4FD801C701022E04C042
:100C0000B695A795979587950A94D2F780FF12C05D
:100C1000DE01CA01F5E0DF2EFC0165917491ED91D2
:100C2000FC911197E62BF72BED93FD93DA94029646
:100C3000DD2091F72F5F3F4F465F5F4F2931310530
:100C4000D9F6DF91CF911F910F91FF90EF90DF9038
:100C500008956F927F928F929F92BF92CF92DF9270
:100C6000EF92FF920F931F93B82E380149010E9413
:100C700057058B2DB401A3010E949D058B2DB70153
:100C8000A6010E94E3051F910F91FF90EF90DF9066
:100C9000CF90BF909F908F907F906F90089585B177
:100CA0008F7885B985B185B908958F929F92AF925B
:100CB000BF92CF92DF92EF92FF920F931F93CF9349
:100CC000DF93982F862F933009F4BCC2943008F438
:100CD000E2C0953009F482C3953008F44DC19630D6
:100CE00009F0DFC090E06FE070E00E94C110EC01FD
:100CF000FC01EE0FFF1FEE0FFF1FE658FC4F0591A2
:100D0000159125913491FC01EE0FFF1FEE0FFF1F8F
:100D1000E258FC4FC590D590E590F490FC01EE0FA1
:100D2000FF1FEE0FFF1FEE57FC4F85909590A5908B
:100D3000B49080E0A801B9018601970164017501B2
:100D40000E942906FE01EE0FFF1FEE0FFF1FEA575C
:100D5000FC4F0591159125913491FE01EE0FFF1F77
:100D6000EE0FFF1FE657FC4FC590D590E590F4902D
:100D7000FE01EE0FFF1FEE0FFF1FE257FC4F8590A5
:100D80009590A590B49081E0A801B90186019701E2
:100D9000640175010E942906FE01EE0FFF1FEE0F90
:100DA000FF1FEE56FC4F0591159125913491FE01E0
:100DB000EE0FFF1FEE0FFF1FEA56FC4FC590D590B8
:100DC000E590F490FE01EE0FFF1FEE0FFF1FE656B9
:100DD000FC4F85909590A590B49082E0A801B90150
:100DE00086019701640175010E942906FE01EE0F3C
:100DF000FF1FEE0FFF1FE256FC4F05911591259145
:100E00003491FE01EE0FFF1FEE0FFF1FEE55FC4F5A
:100E1000C590D590E590F490FE01EE0FFF1FEE0F08
:100E2000FF1FEA55FC4F85909590A590B49083E004
:100E3000A801B90186019701640175010E94290684
:100E4000FE01EE0FFF1FEE0FFF1FE655FC4F059151
:100E5000159125913491FE01EE0FFF1FEE0FFF1F3C
:100E6000E255FC4FC590D590E590F490FE01EE0F51
:100E7000FF1FEE0FFF1FEE54FC4F85909590A5903D
:100E8000B49084E0A801B90186019701640175015D
:100E90000E9429063BC0913009F4A3C2923009F4A4
:100EA000E7C080E041E050E060E070E000E010E08A
:100EB0009801CC24DD2476010E94290681E041E0DE
:100EC00050E060E070E000E010E098010E94290628
:100ED00082E041E050E060E070E000E010E0980166
:100EE0000E94290683E041E050E060E070E000E00D
:100EF00010E098010E94290684E041E050E060E0A3
:100F000070E000E010E098010E942906C0E0D0E007
:100F10008C2F0E94E80424E0CE01880F991F880FCF
:100F2000991F8C0F9D1FE22FF0E0DC01AE0FBF1F59
:100F3000AA0FBB1FA05ABE4F3C913EBD0DB407FE89
:100F4000FDCFDC01AE0FBF1FAA0FBB1FA05ABE4FC3
:100F500011963C9111973EBD0DB407FEFDCFE80FF1
:100F6000F91FEE0FFF1FE05AFE4F1182108222235D
:100F700009F44AC12150D7CFC2EDD5E0FE01059159
:100F8000159125913491FE013496C590D590E59048
:100F9000F490FE01389685909590A590B49080E0ED
:100FA000A801B90186019701640175010E94290613
:100FB000FE013C960591159125913491FE017096A4
:100FC000C590D590E590F490FE017496859095902B
:100FD000A590B49081E0A801B90186019701640150
:100FE00075010E942906FE017896059115912591BB
:100FF0003491FE017C96C590D590E590F490FE0169
:10100000B09685909590A590B49082E0A801B90122
:1010100086019701640175010E942906FE01B496BC
:101020000591159125913491FE01B896C590D59002
:10103000E590F490FE01BC9685909590A590B490B3
:1010400083E0A801B90186019701640175010E943E
:101050002906FE01F0960591159125913491FE0126
:10106000F496C590D590E590F490FE01F89605CFE2
:1010700090E06FE070E00E94C110EC01FC01EE0F07
:10108000FF1FEE0FFF1FE65CF84F059115912591AC
:101090003491FC01EE0FFF1FEE0FFF1FE25CF84FD3
:1010A000C590D590E590F490FE01EE0FFF1FEE0F76
:1010B000FF1FEE5BF84F85909590A590B49080E06F
:1010C000A801B90186019701640175010E942906F2
:1010D000FE01EE0FFF1FEE0FFF1FEA5BF84F0591B9
:1010E000159125913491FE01EE0FFF1FEE0FFF1FAA
:1010F000E65BF84FC590D590E590F490FE01EE0FB9
:10110000FF1FEE0FFF1FE25BF84F85909590A590B3
:10111000B49081E0A801B9018601970164017501CD
:101120000E942906FE01EE0FFF1FEE0FFF1FEE5A71
:10113000F84F0591159125913491FE01EE0FFF1F97
:10114000EE0FFF1FEA5AF84FC590D590E590F49046
:10115000FE01EE0FFF1FEE0FFF1FE65AF84F8590BE
:101160009590A590B49082E0A801B90186019701FD
:10117000640175010E942906FE01EE0FFF1FEE0FAC
:10118000FF1FE25AF84F0591159125913491FE0108
:10119000EE0FFF1FEE0FFF1FEE59F84FC590D590D1
:1011A000E590F490FE01EE0FFF1FEE0FFF1FEA59CE
:1011B000F84F85909590A590B49083E0A801B9016F
:1011C00086019701640175010E942906FE01EE0F58
:1011D000FF1FEE0FFF1FE659F84F0591159125915E
:1011E0003491FE01EE0FFF1FEE0FFF1FE259F84F83
:1011F000C590D590E590F490FE01EE0FFF1FEE0F25
:10120000FF1FEE58F84F39CE169A1698C430D10504
:1012100069F4DF91CF911F910F91FF90EF90DF90D4
:10122000CF90BF90AF909F908F9008958FE99FE0EF
:101230000197F1F700C000002196C530D10509F0F3
:1012400067CEE7CF90E06FE070E00E94C110EC0144
:10125000FC01EE0FFF1FEE0FFF1FEA59F74F05913C
:10126000159125913491FC01EE0FFF1FEE0FFF1F2A
:10127000E659F74FC590D590E590F490FC01EE0F3C
:10128000FF1FEE0FFF1FE259F74F85909590A59035
:10129000B49080E0A801B90186019701640175014D
:1012A0000E942906FE01EE0FFF1FEE0FFF1FEE58F2
:1012B000F74F0591159125913491FE01EE0FFF1F17
:1012C000EE0FFF1FEA58F74FC590D590E590F490C8
:1012D000FE01EE0FFF1FEE0FFF1FE658F74F859040
:1012E0009590A590B49081E0A801B901860197017D
:1012F000640175010E942906FE01EE0FFF1FEE0F2B
:10130000FF1FE258F74F0591159125913491FE0189
:10131000EE0FFF1FEE0FFF1FEE57F74FC590D59052
:10132000E590F490FE01EE0FFF1FEE0FFF1FEA574E
:10133000F74F85909590A590B49082E0A801B901EF
:1013400086019701640175010E942906FE01EE0FD6
:10135000FF1FEE0FFF1FE657F74F059115912591DF
:101360003491FE01EE0FFF1FEE0FFF1FE257F74F04
:10137000C590D590E590F490FE01EE0FFF1FEE0FA3
:10138000FF1FEE56F74F85909590A590B49083E09F
:10139000A801B90186019701640175010E9429061F
:1013A000FE01EE0FFF1FEE0FFF1FEA56F74F0591EC
:1013B000159125913491FE01EE0FFF1FEE0FFF1FD7
:1013C000E656F74FC590D590E590F490FE01EE0FEC
:1013D000FF1FEE0FFF1FE256F74F4FCDCEE3D3E0D6
:1013E000CDCD90E06FE070E00E94C110EC01FC01F7
:1013F000EE0FFF1FEE0FFF1FE25FF94F05911591F2
:1014000025913491FC01EE0FFF1FEE0FFF1FEE5EE2
:10141000F94FC590D590E590F490FC01EE0FFF1FB9
:10142000EE0FFF1FEA5EF94F85909590A590B4905E
:1014300080E0A801B90186019701640175010E944D
:101440002906FE01EE0FFF1FEE0FFF1FE65EF94FAC
:101450000591159125913491FE01EE0FFF1FEE0FBE
:10146000FF1FE25EF94FC590D590E590F490FE0124
:10147000EE0FFF1FEE0FFF1FEE5DF94F8590959069
:10148000A590B49081E0A801B9018601970164019B
:1014900075010E942906FE01EE0FFF1FEE0FFF1FD0
:1014A000EA5DF94F0591159125913491FE01EE0FFA
:1014B000FF1FEE0FFF1FE65DF94FC590D590E59039
:1014C000F490FE01EE0FFF1FEE0FFF1FE25DF94FDC
:1014D00085909590A590B49082E0A801B90186010D
:1014E0009701640175010E942906FE01EE0FFF1F9E
:1014F000EE0FFF1FEE5CF94F059115912591349188
:10150000FE01EE0FFF1FEE0FFF1FEA5CF94FC590C3
:10151000D590E590F490FE01EE0FFF1FEE0FFF1F38
:10152000E65CF94F85909590A590B49083E0A80172
:10153000B90186019701640175010E942906FE0127
:10154000EE0FFF1FEE0FFF1FE25CF94F05911591A3
:1015500025913491FE01EE0FFF1FEE0FFF1FEE5B92
:10156000F94FC590D590E590F490FE01EE0FFF1F66
:10157000EE0FFF1FEA5BF94F80CCCF92DF92EF9224
:10158000FF920F931F93CF93DF93EC01598140E0BB
:101590002A81922F992780E0482B592B888190E04F
:1015A000482B592B662757FD6095762F088910E048
:1015B000000F111F000F111F000F111F8F8590E0EA
:1015C0008770082B192B2989922F990F990F990F42
:1015D00080E0082B192B222717FD2095322FC8A059
:1015E000DD240024D694C7940794D694C794079416
:1015F000DC2CC02C8F8D90E08F73C82AD92AE9A1EA
:101600009E2F9295990F990F907C80E0C82AD92A35
:10161000EE24D7FCE094FE2C0E9429064C8150E079
:101620005695542F4427579547958B8190E08F7797
:10163000482B592B2D81922F97959927979580E0CC
:10164000482B592B662757FD6095762F0B8910E0A4
:10165000000F111F000F111F8A8990E08370082B63
:10166000192B2C89922F990F990F80E0082B192B99
:10167000222717FD2095322FCBA0DD24CC0CDD1CBA
:10168000C294D29480EFD822DC24C822DC248AA120
:1016900090E08F71C82AD92AECA19E2F9295990FBC
:1016A000907E80E0C82AD92AEE24D7FCE094FE2C54
:1016B00081E00E9429064F8150E00024569547950D
:1016C0000794569547950794542F402D8E8190E0AE
:1016D0008F73482B592B2885922F9295990F990F2C
:1016E000907C80E0482B592B662757FD6095762F1C
:1016F0000E8910E0000F111F8D8990E08170082B7A
:10170000192B2F89922F990F80E0082B192B288DE8
:10171000922F992780E0082B192B222717FD20955F
:10172000322FCEA0DD24C294D294A0EFDA22DC24A2
:10173000CA22DC248DA190E08F70C82AD92AEFA19B
:101740009E2F9295907F80E0C82AD92AEE24D7FC5C
:10175000E094FE2C82E00E9429064A8550E0440F66
:10176000551F42955295507F5427407F54278985B5
:1017700090E08F71482B592B2B85922F9295990FC2
:10178000907E80E0482B592B662757FD6095762F79
:101790001A8D00E02B8D922F992780E0082B192BB2
:1017A000898D90E0082B192B222717FD2095322FC9
:1017B000C9A4DD24CC0CDD1CCC0CDD1CCC0CDD1C48
:1017C00088A590E08770C82AD92AEAA59E2F990F8C
:1017D000990F990F80E0C82AD92AEE24D7FCE0940B
:1017E000FE2C83E00E9429064D8550E042955295DB
:1017F000507F5427407F54278C8590E08F70482B72
:10180000592B2E85922F9295907F80E0482B592B53
:10181000662757FD6095762F0D8D10E01695102FD9
:101820000027179507958C8D90E08F77082B192B43
:101830002E8D922F97959927979580E0082B192B3D
:10184000222717FD2095322FCCA4DD24CC0CDD1CE3
:10185000CC0CDD1C8BA590E08370C82AD92AEDA59D
:101860009E2F990F990F80E0C82AD92AEE24D7FC21
:10187000E094FE2C84E00E942906DF91CF911F9115
:101880000F91FF90EF90DF90CF900895CF92DF926D
:10189000EF92FF920F931F93CF93DF93EC01598147
:1018A00040E02A81922F992780E0482B592B88818C
:1018B00090E0482B592B662757FD6095762F0889B5
:1018C00010E0000F111F000F111F000F111F8F8557
:1018D00090E0807E082B192B2989922F990F990F60
:1018E000990F80E0082B192B222717FD2095322F06
:1018F000C8A0DD240024D694C7940794D694C79436
:101900000794DC2CC02C8F8D90E08C7FC82AD92ABC
:10191000E9A19E2F9295990F990F907C80E0C82A9B
:10192000D92AEE24D7FCE094FE2C0E9429064C8193
:1019300050E05695542F4427579547958B8190E05A
:101940008E7F482B592B2D81922F9795992797950C
:1019500080E0482B592B662757FD6095762F0B8921
:1019600010E0000F111F000F111F8A8990E0807C8A
:10197000082B192B2C89922F990F990F80E0082B97
:10198000192B222717FD2095322FCBA0DD24CC0C5C
:10199000DD1CC294D294E0EFDE22DC24CE22DC24D3
:1019A0008AA190E0887FC82AD92AECA19E2F92951F
:1019B000990F907E80E0C82AD92AEE24D7FCE094C3
:1019C000FE2C81E00E9429064F8150E000245695AC
:1019D00047950794569547950794542F402D8E812F
:1019E00090E08C7F482B592B2885922F9295990F48
:1019F000990F907C80E0482B592B662757FD609506
:101A0000762F0E8910E0000F111F8D8990E08078ED
:101A1000082B192B2F89922F990F80E0082B192B57
:101A2000288D922F992780E0082B192B222717FD4C
:101A30002095322FCEA0DD24C294D29480EFD822FC
:101A4000DC24C822DC248DA190E0807FC82AD92A1A
:101A5000EFA19E2F9295907F80E0C82AD92AEE248C
:101A6000D7FCE094FE2C82E00E9429064A8550E0D3
:101A7000440F551F42955295507F5427407F54275D
:101A8000898590E0887F482B592B2B85922F929542
:101A9000990F907E80E0482B592B662757FD609563
:101AA000762F1A8D00E02B8D922F992780E0082B3E
:101AB000192B898D90E0082B192B222717FD2095D3
:101AC000322FC9A4DD24CC0CDD1CCC0CDD1CCC0CCD
:101AD000DD1C88A590E0807EC82AD92AEAA59E2F21
:101AE000990F990F990F80E0C82AD92AEE24D7FCC4
:101AF000E094FE2C83E00E9429064D8550E042953B
:101B00005295507F5427407F54278C8590E0807FEA
:101B1000482B592B2E85922F9295907F80E0482B51
:101B2000592B662757FD6095762F0D8D10E0169581
:101B3000102F0027179507958C8D90E08E7F082B2E
:101B4000192B2E8D922F97959927979580E0082B2A
:101B5000192B222717FD2095322FCCA4DD24CC0C85
:101B6000DD1CCC0CDD1C8BA590E0807CC82AD92A1A
:101B7000EDA59E2F990F990F80E0C82AD92AEE244F
:101B8000D7FCE094FE2C84E00E942906C0E0D0E05F
:101B90008C2F0E94E80424E0CE01880F991F880F43
:101BA000991F8C0F9D1FE22FF0E0DC01AE0FBF1FCD
:101BB000AA0FBB1FA05ABE4F3C913EBD0DB407FEFD
:101BC000FDCFDC01AE0FBF1FAA0FBB1FA05ABE4F37
:101BD00011963C9111973EBD0DB407FEFDCFE80F65
:101BE000F91FEE0FFF1FE05AFE4F118210822223D1
:101BF00011F02150D8CF169A1698C430D10549F467
:101C0000DF91CF911F910F91FF90EF90DF90CF90D8
:101C100008958FE99FE00197F1F700C00000219639
:101C2000C530D10509F0B4CFEBCFCF93DF93EC01F2
:101C300004C08AE18A95F1F700C0CE0160E20E94FB
:101C40006E108823B1F7DF91CF910895CF93DF9382
:101C5000EB0106C080919201609193010E945506AC
:101C60000E949C0F8823B1F3CE010E94BC0F81E03B
:101C7000DF91CF910895E62FF0E03197E80FF91F3B
:101C80002081322F3F5F30832F512B3510F020E21F
:101C900020830E94150E08950E948A0F8FE798E313
:101CA000A1E081509040A040E1F700C000000895FD
:101CB0000E941D10089583B180958F700895CF9272
:101CC000DF92EF92FF920F931F93DF93CF93CDB7E5
:101CD000DEB7C056D0400FB6F894DEBF0FBECDBF02
:101CE00084B1806784B985B18F6085B90E944C0E3C
:101CF0008E010F5F1F4FD801E0E4F1E080E2019018
:101D00000D928150E1F721E2E22EF12CEC0EFD1E46
:101D1000D701E0E0F1E080E401900D928150E1F71D
:101D200078940E941D10CC24C39491E1D92EC70150
:101D3000B80140E20E94260E8130C9F789818130C6
:101D4000B1F78A81813009F487C0823009F46AC012
:101D5000833009F44DC0843089F18530A9F0863094
:101D600031F79B819093930180939201C982DA822B
:101D700083B180958F708B838C818130C1F6C801CF
:101D800060E20E94150ED3CF9B81909393018093C4
:101D90009201C982DA8283B180958F708B838C81A6
:101DA000813011F08A81DBCFC80160E20E94150EFC
:101DB0008981813009F0BBCF8A81D1CF9B819093FB
:101DC000930180939201C982DA8283B180958F70EA
:101DD0008B838C81813011F08A81BFCFC80160E292
:101DE0000E94150E8981813009F0A1CF8A81B5CF7B
:101DF0009B819093930180939201C982DA8283B18F
:101E000080958F708B838C81813011F08A81A3CF74
:101E1000C80160E20E94150E8981813009F087CFE8
:101E20008A8199CF9B819093930180939201C9827B
:101E3000DA8283B180958F708B838C81813011F031
:101E40008A8186CFC80160E20E94150E89818130A7
:101E500009F06DCF8A817CCF9B8190939301809311
:101E600092018983DA8283B180958F708B838C8114
:101E7000813011F08A8169CFC80160E20E94150E9D
:101E80008981813009F053CF8A815FCF81B180672A
:101E900081B98CB580658CBD8DB581608DBD08958F
:101EA0008EBD0DB407FEFDCF8EB50895662361F09B
:101EB000E82FF92F80E091919EBD0DB407FEFDCF74
:101EC0009EB58F5F8617B8F308958FEF8EBD0DB462
:101ED00007FEFDCF8EB50895E82FF92F80E21EBCD6
:101EE0000DB407FEFDCF9EB591938150C1F70895C3
:101EF000442379F0A82FB92FE62FF72F80E09D918A
:101F00009EBD0DB407FEFDCF9EB591938F5F8417E4
:101F1000B0F3089581B1836081B91198109AE8E611
:101F2000F0E0808181608083EBE6F0E08081886072
:101F300080830E94460F089580919401882311F0B8
:101F400080E0089510980E94650F109A807408959B
:101F5000DF93CF930F92CDB7DEB710988F71806269
:101F600069830E94500F6981862F0E94500F109A3A
:101F70000F90CF91DF910895CF93DF93EC011098EC
:101F800081E60E94500FCE01BE0140E20E94780F10
:101F9000109A87E060E40E94A80FDF91CF91089526
:101FA00080919401882309F40895109880E00E949C
:101FB000500F109A119880E06BE40E94A80F119ABC
:101FC0001092940187E060E30E94A80F08951F9289
:101FD0000F920FB60F9211242F933F934F935F935D
:101FE0006F937F938F939F93AF93BF93EF93FF93E1
:101FF00080919401882381F010980E94650F109AB7
:10200000119880E06BE40E94A80F119A109294013D
:1020100087E060E30E94A80FFF91EF91BF91AF911D
:102020009F918F917F916F915F914F913F912F91F0
:102030000F900FBE0F901F90189585E066E40E94E8
:10204000A80F81E160E20E94A80F1092940180E045
:102050006BE40E94A80F119A08950F931F93DF93CA
:10206000CF930F92CDB7DEB78B0110988F71498354
:102070000E94500FC801B80149810E94780F109A40
:102080000F90CF91DF911F910F9108950F931F93A0
:10209000DF93CF930F92CDB7DEB78B0110988F717E
:1020A000806249830E94500FC8014981642F0E94B9
:1020B000560F109A0F90CF91DF911F910F910895B5
:1020C000BC0180E145E00E9446100895BC011198D2
:1020D0008AE045E00E944610119A0895EF92FF921F
:1020E0000F931F93DF93CF930F92CDB7DEB78C0181
:1020F000F62EEFB6F894198287E0BE016F5F7F4F2E
:1021000041E00E942D101B9915C0898185FD0EC0EC
:10211000EFBE809194018823A1F08FEF0F90CF91B3
:10212000DF911F910F91FF90EF900895809194019E
:10213000882371F30E94D00FEFBE80919401882311
:1021400061F7119881E08093940180E06AE40E9435
:10215000A80F109881EE0E94500F109A109880EAF4
:102160000E94500FC8016F2D0E94560F109A119AAD
:1021700080E00F90CF91DF911F910F91FF90EF9032
:1021800008955527002480FF02C0060E571F660FD2
:10219000771F6115710521F096958795009799F73E
:0A21A000952F802D0895F894FFCFCD
:1021AA006162636465666768696A6B6C6D6E6F709D
:1021BA007172737475767778797A414243444546E9
:1021CA006162636465666768696A6B6C6D6E6F707D
:1021DA007172737475767778797A414243444546C9
:1021EA006162636465666768696A6B6C6D6E6F705D
:1021FA007172737475767778797A414243444546A9
:00000001FF
