:100000000C9428000C9445000C9445000C94450079
:100010000C9479010C9445000C9445000C94450017
:100020000C9445000C9445000C9445000C9445003C
:100030000C9445000C9445000C9445000C9445002C
:100040000C9445000C9445000C9445000C9445001C
:1000500011241FBECEEFD2E0DEBFCDBF11E0A0E085
:10006000B1E0E6E8F3E002C005900D92A032B107DE
:10007000D9F711E0A0E2B1E001C01D92A132B107B1
:10008000E1F70E9450000C94C1010C940000FC01A7
:100090008081882321F0319681918823E9F70895A2
:1000A000FF920F931F93DF93CF93CDB7DEB7A09747
:1000B0000FB6F894DEBF0FBECDBF219A209A8E01F5
:1000C0000F5F1F4FD801E0E0F1E080E201900D9258
:1000D0008150E1F70E94AF018FE798E3A1E08150E2
:1000E0009040A040E1F700C00000789487E0B8019C
:1000F00041E00E9446010E94F10088E6898380E287
:10010000F82E88A1982F9F5F98A38F518B3508F008
:10011000F8A2C80160E20E940101AFE1BEE41197BC
:10012000F1F700C00000EDCF81B1806781B98CB5D7
:1001300081658CBD8DB581608DBD08958EBD0DB47A
:1001400007FEFDCF8EB50895482F662369F09C0108
:10015000F90180818EBD0DB407FEFDCF8EB53196BD
:100160008E2F841B8617A8F308951EBC0DB407FEBE
:10017000FDCF8EB50895AC0120E030E01EBC0DB47B
:1001800007FEFDCF8EB5FA01E20FF31F80832F5FCC
:100190003F4F2032310591F70895DC01442399F057
:1001A00020E030E0FD01E20FF31F80818EBD0DB431
:1001B00007FEFDCF8EB5FB01E20FF31F80832F5F9B
:1001C0003F4F241778F308951F93162F2A988F71A5
:1001D00080620E949E00812F0E949E002A9A1F9199
:1001E000089585E062E00E94E40081E160E10E9400
:1001F000E4001092200180E06BE40E94E4002B9A5E
:1002000008951F93CF93DF93EC01162F8091200167
:100210008823E1F72B9881E08093200180E06AE455
:100220000E94E4002A9881EE0E949E002A9A2A9851
:1002300080EA0E949E00CE01612F0E94A4002A9AAB
:100240002B9ADF91CF911F910895FF920F931F93E7
:100250008B01F42E2A988F7180620E949E00C80143
:100260006F2D0E94A4002A9A1F910F91FF9008956C
:10027000BC0180E145E00E9425010895BC012B9856
:100280008AE045E00E9425012B9A0895FF920F9382
:100290001F938B01F42E2A988F710E949E00C80133
:1002A000B8014F2D0E94CD002A9A1F910F91FF9007
:1002B00008950F931F938C012A9881E60E949E0057
:1002C000C801B80140E10E94CD002A9A87E060E4AD
:1002D0000E94E4001F910F910895809120018823CE
:1002E00011F080E008952A980E94B5002A9A80743F
:1002F00008951F920F920FB60F9211242F933F93E0
:100300004F935F936F937F938F939F93AF93BF931D
:10031000EF93FF9380912001882381F02A980E9417
:10032000B5002A9A2B9880E06BE40E94E4002B9A97
:100330001092200187E060E30E94E400FF91EF91BA
:10034000BF91AF919F918F917F916F915F914F91ED
:100350003F912F910F900FBE0F901F90189584B171
:100360008C6084B92B982A9AE8E6F0E0808182605C
:100370008083ECE6F0E08081806180830E949400BD
:060380000895F894FFCF80
:100386002E656C6C6F206E6F6F646C65212E2E7DF2
:100396006C61756768206974207570205275746881
:00000001FF
