:1000000012C02AC029C028C027C026C025C09BC056
:1000100023C022C021C0C4C11FC01EC01DC01CC03F
:100020001BC01AC019C011241FBECFEDCDBF10E0F8
:10003000A0E6B0E0E2E9F5E002C005900D92A0393B
:10004000B107D9F710E0A0E9B0E001C01D92A339D3
:10005000B107E1F7B5D09BC2D3CF28D28FE097E2AA
:100060000197F1F700C000000895AF92BF92CF92C0
:10007000DF92EF92FF920F931F93CF93DF93182F8E
:10008000E92EA62EC0E0D0E00BC087EC90E00197EF
:10009000F1F700C00000219693E1CA38D907A9F111
:1000A00036D1882391F3812F9E2D4FD180E690E0A9
:1000B00062D2BB24CC24DD24A114B104C104D10438
:1000C000A9F08E2DE12EE7017E01F82EE701EE2446
:1000D000FF248701899147D20894E11CF11C011D7E
:1000E000111DEA14FB040C051D05A0F380E690E049
:1000F00042D281E0DF91CF911F910F91FF90EF905D
:10010000DF90CF90BF90AF9008958FEFF3CFE62FA1
:10011000F0E03197E80FF91F20812F5F2083203214
:1001200030F0DC011F962C911F972B3710F020E246
:10013000208393DF0895EFE0F7E23197F1F700C0F5
:10014000000093DF08951F920F920FB60F921124B3
:100150002F933F934F935F936F937F938F939F93CF
:10016000AF93BF93CF93DF93EF93FF938091900072
:10017000C82FD0E0FCD1C159DF4F88838091900017
:100180008F3119F481E0809391008091900090E08C
:1001900001968F71907080939000FF91EF91DF91A5
:1001A000CF91BF91AF919F918F917F916F915F910F
:1001B0004F913F912F910F900FBE0F901F90189568
:1001C0001F938CE090E0C8D194D08FE798E3A1E032
:1001D00081509040A040E1F700C00000789487E093
:1001E0006FE670E041E020D112D187E380936F0089
:1001F0008FEF90E7A2E081509040A040E1F700C06F
:10020000000087E060E38FD08FE798E3A1E08150A2
:100210009040A040E1F700C0000083E690E0ABD141
:10022000809191008130E1F71AB1579887E690E00C
:10023000A2D104C09AE19A95F1F700C08FE690E050
:1002400060E234D18823B1F789E690E094D18FE65B
:1002500090E060E20ADF813039F08DE690E08BD1EA
:10026000109291001AB9DCCF8BE690E084D1F8CFE0
:10027000BD98C59A87B3806C87BB8AE18DB9089514
:100280008FB980E48EB98BE18DB9769BFDCF8FB1AC
:100290000895442391F0A82FB92FE62FF72F90E06F
:1002A00030E48BE12D912FB93EB98DB9769BFDCF0E
:1002B0002FB121939F5F9417A8F30895662379F0D7
:1002C000E82FF92F90E030E48BE121912FB93EB96E
:1002D0008DB9769BFDCF2FB19F5F9617B0F3089530
:1002E0008FB980E48EB98BE18DB9769BFDCF8FB14C
:1002F000089587B38C6087BBC49AC398C29A8BB7A2
:1003000080628BBF80B5806180BDB2DF089580912F
:100310009200882311F080E00895C2988FEFE0DF0B
:10032000C29A80740895DF93CF930F92CDB7DEB752
:10033000C2988F7180626983D3DF6981862FD0DF95
:10034000C29A0F90CF91DF910895CF93DF93EC0184
:10035000C29881E6C5DFCE01BE0140E29ADFC29AB3
:10036000C29882EEBDDFC29A87E060E4DCDFDF91F5
:10037000CF91089580919200882371F0C2988FEFF9
:10038000AFDFC29AC39880E06BE4CDDFC39A1092CE
:10039000920087E060E3C7DF8AB780628ABF089572
:1003A0001F920F920FB60F9211242F933F934F93EA
:1003B0005F936F937F938F939F93AF93BF93EF93CD
:1003C000FF9380919200882371F0C2988FEF88DFAD
:1003D000C29AC39880E06BE4A6DFC39A10929200A1
:1003E00087E060E3A0DF8AB780628ABFFF91EF9168
:1003F000BF91AF919F918F917F916F915F914F913D
:100400003F912F910F900FBE0F901F90189585E090
:1004100062E089DF81E160E286DF1092920080E095
:100420006BE481DFC39A08950F931F93DF93CF93FB
:100430000F92CDB7DEB78B01C2988F71498350DF21
:10044000C801B801498125DFC29A0F90CF91DF9191
:100450001F910F9108950F931F93DF93CF930F92E6
:10046000CDB7DEB78B01C2988F718062498338DFC8
:10047000C8014981642F22DFC29A0F90CF91DF918A
:100480001F910F910895BC0180E145E0E4DF0895DC
:10049000BC01C3988AE045E0DEDFC39A0895BC0141
:1004A000C3988BE045E0D7DFC39A0895EF92FF929F
:1004B0000F931F93DF93CF930F92CDB7DEB78C01CD
:1004C000F62EEFB6F894198287E0BE016F5F7F4F7A
:1004D00041E0AADFB49915C0898185FD0EC0EFBE49
:1004E00080919200882399F08FEF0F90CF91DF9148
:1004F0001F910F91FF90EF900895809192008823B3
:1005000071F338DFEFBE80919200882369F788E6A7
:1005100090E029D0C39881E08093920080E06AE463
:1005200002DFC29881EEDCDEC29AC29880EAD8DE91
:10053000C8016F2DC3DEC29A88E690E014D0C39A3A
:1005400081E790E010D080E00F90CF91DF911F9174
:100550000F91FF90EF90089592B989B988E98AB90F
:100560008EE083B908955D9BFECF8CB908955F9BA3
:10057000FECF8CB10895FC018081882339F031963B
:100580005D9BFECF8CB981918823D1F70895F894B3
:02059000FFCF9B
:100592000D0A000D0A7300740072006B00620037CE
:1005A20062636465666768696A6B6C6D6E6F7071B1
:1005B20072737475767778797A31323334353600DE
:00000001FF
